:020000040800F2
:1000000048D3002075A20008994A00089B4A0008BE
:100010009F4A0008A34A0008A74A00080000000001
:10002000000000000000000000000000AB4A0008D3
:10003000AD4A0008000000008FD60008B14A000851
:100040008FA200088FA200088FA200088FA20008CC
:100050008FA200088FA200088FA200088FA20008BC
:100060008FA200088FA200088FA200088FA20008AC
:100070008FA200088FA200088FA200088FA200089C
:100080008FA200088FA200088FA200088FA200088C
:100090008FA200088FA200088FA20008995A0008BA
:1000A0008FA200088FA200088FA200088FA200086C
:1000B000575E0008E35E00088FA200088FA20008C8
:1000C0008FA200088FA200088FA200088FA200084C
:1000D0008FA2000893520008A3520008B3520008F0
:1000E000E34A00088FA200088FA200088FA2000830
:1000F0008FA200088FA200088FA200088FA200081C
:100100008FA200088FA200088FA200088FA200080B
:10011000C35200088FA200088FA200088FA2000817
:100120008FA200088FA200088FA200088FA20008EB
:100130008FA20008E54A00088FA200088FA20008DD
:100140008FA200088FA200088FA20008CD4D0108E1
:100150008FA200088FA200088FA20008D3520008C7
:100160008FA200088FA200088FA200088FA20008AB
:100170008FA200088FA200088FA200088FA200089B
:100180008FA200088FA20008DFF80CD015F04CFBFE
:1001900000480047E110000848D3002046E0212332
:1001A0000022114610460CF0CFFD684906200CF0E5
:1001B00094FC21230022114610460CF0C5FD634932
:1001C000083107200CF089FC21230022114610463B
:1001D0000CF0BAFD5D49103103200CF07EFC2123A8
:1001E0000022114610460CF0AFFD212300221146DB
:1001F00010460CF0A9FD554928310B200CF06DFC80
:1002000021230022114610460CF09EFD4F4930314B
:1002100009200CF062FC21230022114610460CF04C
:1002200093FD4A49383105200CF057FCB7E786B0FA
:100230000AF0BAFD012000214FF4A072444BCDE931
:100240000132CDE9031006200346424A009042489D
:100250000CF055FA012000217822404BCDE9013203
:10026000CDE90310072003463D4A00903D480CF0BD
:1002700046FA01200021A0223B4BCDE90132CDE915
:10028000031009200346394A009039480CF037FA28
:10029000012000214FF48C72364BCDE90132CDE9BB
:1002A000031003200346344A009034480CF027FA28
:1002B00001200021A022324BCDE90132CDE903100B
:1002C0000B2003462F4A00902F480CF018FA01200B
:1002D00000214FF496622D4BCDE90132CDE9031098
:1002E000052003462A4A00902A480CF008FA0D23FC
:1002F000294A0021AFF25B100CF0AAF914200CF08F
:1003000053FA06E04FF4FA730022114601200CF074
:100310001BFDF7E705F00EF80023012219461846E9
:100320000CF012FD11E021230022114610460CF0C2
:100330000BFD21230022114610460CF005FD212360
:100340000022114610460CF0FFFCECE75031002073
:10035000300B00202C100020B70E000830100020B9
:100360000C120020AB2C000870160020EC180020A6
:10037000D52F0008101200206C160020C34700087B
:10038000F01800206C1B0020AF350008701B002007
:100390002C2E0020951800084C310020FEB5074691
:1003A0000D46AA208DF800008DF80170280A8DF8FE
:1003B0000200E8B28DF803000024002603E01DF8D7
:1003C00006000444761C042EF9DBE4B28DF80440E8
:1003D0000D208DF805000A208DF8060007226946D9
:1003E000052004F059FEFEBD70B592B00026F74816
:1003F0000078012814D100250BE0F449681C085C42
:1004000003A94855F148C078C01CA84200DC02E0AE
:100410006D1CC82DF1DB00BF0020EC4908700126DF
:10042000012E7DD1EA4A07CA8DE807009DF80F002A
:10043000832876D19DF8100000019DF8111040EA44
:100440002110C4B2012C0DD19DF814009DF8131099
:1004500040EA012001B29DF811001B38DD4A22F864
:100460001010B6E0032C1BD19DF814009DF813105A
:1004700040EA012001B29DF8110000F00F02D548BA
:10048000123020F812109DF8110000F00F0008281B
:1004900005D09DF8110000F00F000028FFD098E073
:1004A000062C0FD19DF814009DF8131040EA01208E
:1004B00001B29DF8110000F00F02C6482C3020F860
:1004C000121086E0092C0FD19DF814009DF813102E
:1004D00040EA012001B29DF8110000F00F02BD4872
:1004E000403020F8121074E00D2C50D19DF814000B
:1004F0009DF8131040EA012001B29DF8110000F0B0
:100500000F02B448683020F812106838B0F984003F
:1005100040F2EE3188421BD104208DF8020001E048
:10052000C2E05BE080208DF8030003208DF804001A
:1005300000208DF805000C208DF806000722694682
:10054000002004F0A9FD0021A248A0F8841040E09A
:10055000A048B0F98400B0F5806F3AD104208DF83E
:10056000020080208DF8030003208DF80400002095
:100570008DF8050011208DF806000722694600203D
:1005800004F08AFD00219348A0F8841021E00B2C90
:100590000FD19DF814009DF8131040EA012001B21C
:1005A0009DF8110000F00F028A48E43020F8121084
:1005B0000FE00E20B0EB241F0BD19DF814009DF826
:1005C000131040EA012001B29DF81120824820F862
:1005D000121001207F4981F8000164E09DF80F00AE
:1005E000812860D19DF81040202C5CD19DF812002C
:1005F00000F00F009DF81210091101EB810100EBD2
:100600004100744981F8DC009DF8130000F00F00F0
:100610009DF81310091101EB810100EB4100C1B2FB
:100620006C4880F8DD109DF8140000F00F009DF874
:100630001410091101EB810100EB4100C1B26548C2
:1006400080F8DE109DF8121080F8DF109DF816007B
:1006500000F00F009DF81610091101EB810100EB6D
:100660004100C1B25B4880F8E0109DF8170000F02F
:100670000F009DF81710091101EB810100EB4100FB
:10068000C1B2544880F8E1109DF8180000F00F0046
:100690009DF81810091101EB810100EB4100C1B276
:1006A0004C4880F8E21000BF12B070BD7047704730
:1006B00070471EB50022494B1B78012B0DD100203D
:1006C00005E0464C431CE35C0DF80030401C0B2851
:1006D000F7DB0023414C23700122012A75D100224F
:1006E0009DF804309DF8034043EA0423A3F57A63A0
:1006F00099B2384BB3F976304B4300EE103AB8EE6E
:10070000C00A9FED371AC0EE010A324BB3F97830B8
:1007100000EE103AB8EEC00AB2EE041AC0EE011AAA
:1007200030EEA10ABDEEC00A10EE103A1CB2294B01
:100730005C879DF806309DF8054043EA0421254B6F
:10074000B3F97A304B4300EE103AB8EEC00A9FED91
:10075000241AC0EE010A1F4BB3F97C3000EE103AA8
:10076000B8EEC00AB2EE041AC0EE011A30EEA10AC9
:10077000BDEEC00A10EE103A1CB2164B9C879DF8D5
:1007800008309DF8074043EA0421124BB3F97E304C
:100790004B4300EE103AB8EEC00A9FED111AC0EEBE
:1007A000010A0C4BB3F9803000EE103AB8EEC00AE3
:1007B000B2EE041AC0EE011A30EEA10ABDEEC00A74
:1007C00010EE103A1CB2034BDC871EBDCC78002023
:1007D00080670108247300203C74002050820020B0
:1007E00000007A44F0B52DED048BA5B09FEDF80A1A
:1007F000B0EE408A0027F7480078012817D100247E
:100800000EE0F449601C085C18A9085518A8005DA2
:100810000D2803D018A8005D0A2800D102E0641C4E
:10082000322CEEDB00BF0020EA4908700127012FBF
:100830007DD100271423202204A918A805F0A8FBC5
:1008400006460024B3E100252AE004A850F824005D
:10085000405D3D2822D104A850F8240000784128AA
:100860000AD004A850F8240000782A2804D00020D8
:1008700004A951F82410485504A951F82420691CF2
:10088000501815F091FAB0EE409AF0EE609A51ECE3
:10089000190B14F063FD08EE100A07E0681CC5B2DE
:1008A00004A850F82400405D0028CED100BF04A960
:1008B00051F82400C8A114F01AFC00BB9FEDC80A2F
:1008C000B4EEC08AF1EE10FA15D8B5EEC08AF1EE9A
:1008D00010FA10DBB2EE040AC8EE000A10EE905ACD
:1008E000284614F028FD41EC190B53EC192BBDA040
:1008F00015F030FA5AE1C1A015F02CFA56E104A91E
:1009000051F82400C3A114F0F2FB20BB9FEDC30AF1
:10091000B4EEC08AF1EE10FA19D89FEDC10AB4EE18
:10092000C08AF1EE10FA12DBB2EE040A00E041E1F7
:10093000C8EE000A10EE905A284614F0FCFC41EC78
:10094000190B53EC192BB7A015F004FA2EE1BBA03C
:1009500015F000FA2AE104A951F82400BDA114F011
:10096000C6FB10BB9FEDBD0AB4EEC08AF1EE10FAD3
:1009700017D89FEDBB0AB4EEC08AF1EE10FA10DB77
:10098000B2EE040AC8EE000A10EE905A284614F09F
:10099000D2FC41EC190B53EC192BB2A015F0DAF98B
:1009A00004E1B5A015F0D6F900E104A951F824003E
:1009B000B6A114F09CFBF8B904A9601C51F8200002
:1009C00040786E2808D1B3A015F0C4F90121B448CD
:1009D00007F0E8FB641CE9E004A9601C51F8200062
:1009E0004078662886D1AFA015F0B4F90121AC4853
:1009F00007F0DAFB641CD9E004A951F82400ACA18B
:100A000014F075FB98B9601CB0420ADA641C05E06A
:100A100004A951F82400FFF74BFE641CB442F7DB35
:100A200001E0FFF744FE25B0BDEC048BF0BD04A946
:100A300051F82400A0A114F05AFBF8B904A9601CD5
:100A400051F8200040786E2808D19DA015F082F959
:100A50000221934807F0A6FB641CA7E004A9601CD0
:100A600051F82000407866289AD198A015F072F9C4
:100A700002218B4807F098FB641C97E004A951F809
:100A8000240095A114F033FBE8BB1FEDAB0AB4EED4
:100A9000C08AF1EE10FA0ED8B5EEC08AF1EE10FA67
:100AA00009DDB3EE040A28EE000ABDEEC00A10EE1E
:100AB000100A05F00AF9BDEEC80A10EE100A01B2DC
:100AC0008848A0F86C10B5EEC08AF1EE10FA04DD8B
:100AD0000121880708F0A4FC04E000214FF08040C9
:100AE00008F09EFCB2EE040AC8EE000A10EE905A1E
:100AF000284614F020FC41EC190B53EC192B7AA07A
:100B000015F028F952E0FFE704A850F82400007817
:100B1000412805D004A850F8240000782A282AD1BA
:100B200000250AE00F2D00DB13E004A850F8240094
:100B3000405D0DF80500681CC5B204A850F82400FB
:100B4000405D0A2805D004A850F82400405D0D2817
:100B5000E8D100BF0D200DF805000A21681C0DF832
:100B600000100D21A81C0DF80010EA1C6946052094
:100B700004F092FA1AE004A951F824005FA114F0DD
:100B8000B6FA98B104A951F824005EA114F0AFFAA6
:100B900060B104A951F824005CA114F0A8FA28B1AE
:100BA00004A850F824105BA015F0D4F8641CB442DB
:100BB000FFF649AE00BF36E770B52DED048BA4B04B
:100BC00000265D480078012801D10024C5E0CBE073
:100BD000000000008486002054656D703100000024
:100BE00000004843CEFCCAD5CAD2BFD8CEC2C9E89D
:100BF000D6C325302E3166A1E60A0000CEFCCAD548
:100C0000CAD2BFD8CEC2C9E8D6C3B3ACCFDEA3A187
:100C10000A00000054656D7032000000000061445D
:100C20000000FA43B7B4D3A6CAD2BFD8CEC2C9E82F
:100C3000D6C325302E3166A1E60A0000B7B4D3A68C
:100C4000CAD2BFD8CEC2C9E8D6C3B3ACCFDEA3A147
:100C50000A00000054656D703300000000009643E8
:100C6000000016434C4544BFD8CEC2C9E8D6C325C0
:100C7000302E3166A1E60A004C4544BFD8CEC2C929
:100C8000E8D6C3B3ACCFDEA3A10A000052656C6105
:100C900079310000B5E7B4C5B7A731BFAA210A0072
:100CA00000080240B5E7B4C5B7A731B9D8210A009A
:100CB00068656C700000000052656C61793200005C
:100CC000B5E7B4C5B7A732BFAA210A00B5E7B4C5D6
:100CD000B7A732B9D8210A004D6F74657273706579
:100CE00065640000707100204D6F746572737065EB
:100CF00065643D25302E31660A0000007A65726F0A
:100D00000000000073656E730000000073746F7064
:100D10000000000063616E206E6F742066696E646F
:100D20002074686520257320696E7374727563740E
:100D3000696F6E210A000000E08A0020AB49601C48
:100D4000085C15A9085515A8005D0D2803D015A845
:100D5000005D0A2800D102E0641C322CEEDB00BFEB
:100D60000020A24908700126012E6BD1282C65DDD8
:100D70001423202201A915A805F00AF905460198B7
:100D800000789B4908700299481C15F00DF8B0EEE8
:100D9000408AF0EE608A51EC180B14F0DFFA9449A7
:100DA00048600399481C14F0FFFFB0EE408AF0EE53
:100DB000608A51EC180B14F0D1FA8D4988600499BF
:100DC000481C14F0F1FFB0EE408AF0EE608A51EC5E
:100DD000180B14F0C3FA8649C8600599481C14F032
:100DE000E3FFB0EE409AF0EE609A51EC190B14F06C
:100DF000B5FA08EE100AB0EE480A7E4800F028FA6C
:100E00007B4880ED040A0699481C14F0CDFFB0EE33
:100E1000408AF0EE608A51EC180B14F09FFA744986
:100E20004861681E01AA52F820107148183014F069
:100E30006CF901206E4981F8200003E015A96EA02D
:100E400014F088FF24B0BDEC048B70BD8DB0002180
:100E50006A4A1278012A0DD1002005E0674B421C36
:100E60009A5C0DF80020401C3228F7DB0022634B0F
:100E70001A70012101291CD19DF80120062A02D1F6
:100E80005F4B5A8015E09DF80120032A0BD19DF895
:100E90000220022A03D19DF80420594B1A80032214
:100EA000574B5A8005E09DF80120102A01D1544B80
:100EB0005A800DB070472DED068B86B004F064FAB1
:100EC00050A103C9CDE9040100F01CFA04F072F846
:100ED0004FF448730122002108460BF035FF4BA068
:100EE00014F038FF81E0FFF767FEFFF7AFFFFFF771
:100EF000E0FBFFF779FA4C480068401C4A4908605B
:100F000008460068322190FBF1F201FB120008B99B
:100F100000F077FC44480068502190FBF1F201FB9F
:100F2000120020B9042204A9052004F0B5F83E48B7
:100F30000068C82190FBF1F201FB120000284ED19D
:100F40003A48C08F50B938480068490090FBF1F228
:100F500001FB120020B903F08FFD01E003F08CFDCE
:100F60003248B0F9340000EE100AB8EEC00ADFEDE6
:100F7000300A80EE201A11EE104A204614F0DBF9F8
:100F800041EC180B2948B0F9320000EE100AB8EE17
:100F9000C00ADFED270A80EE201A11EE104A204623
:100FA00014F0C9F941EC190B2048B0F92E0000EEFD
:100FB000100AB8EEC00ADFED1E0A80EE201A11EE0C
:100FC000104A204614F0B7F941EC1A0B8DED028B54
:100FD0008DED009B53EC1A2B16A014F0BBFE0523DD
:100FE0000022114610460BF0AFFE7CE7E08A00209D
:100FF00090310020C438002025730A008486002028
:101000007A090020410D0A0D000000004D4F4445B3
:101010004C5F313030362056312E30203230323174
:101020002E312E31350A00000C02002024730020DE
:1010300000007A444149523D25302E33662CB1EAF6
:101040003D25302E33662CB9A43D25302E33660A5B
:101050000000000070B502460C46FF25FF2309E0A2
:1010600012F8010B80EA05011B48405C80EA030589
:101070001A48435C2000A4F10104F1D143EA0520A1
:1010800070BD70B504460D4629462046FFF7E2FFC5
:101090000646C6F307206055681C265470BD70B51F
:1010A00005460E4631462846FFF7D4FF0446E217B0
:1010B00004EB12621212AB5D9A420BD1E21704EB01
:1010C00012621212A4EB0223721CAA5C934201D199
:1010D000012070BD0020FCE710020020100300205A
:1010E00003F020FD09F053FD1423064A00210648B1
:1010F0000BF0AEFA00200BF0ADFE09F03DFE00BF94
:10110000FEE70000F03700202F0200089FED900A54
:1011100080ED000A9FED8E0A80ED020A9FED8C0A99
:1011200080ED010A0121C160704710B50B46002413
:101130000460826042609FED860A80ED030A9FEDA5
:10114000840A80ED040AC361002107E09FED800A54
:10115000C46904EB810484ED000A491C44688C4294
:10116000F4DC10BD30B50B460024046082604260A0
:10117000C46004618361002104E00024856945F8AE
:101180002140491C44688C42F7DC30BDF0EE401A27
:10119000C168002905DDC168491EC160C0ED001AA3
:1011A00017E090ED000A80ED010A90ED010A31EEA2
:1011B000C00AB0EE082AC0EE022AC0ED022A90ED65
:1011C000000A90ED022A32EE202A02EE010A80ED9A
:1011D000000A90ED000A704710B50246906800289A
:1011E00016DD9068401E90601368906940F82310E7
:1011F000D0680844D0601068401C1060106800EB94
:10120000D073D46804EB630393FBF0F313611DE028
:101210001068401C1060D2E90003984201DB0020F6
:1012200010601368906950F82300D3680B44181AB3
:10123000D060506800EBD073D46804EB630393FB79
:10124000F0F313611368906940F82310106910BD22
:10125000F0EE400A8168002920DD8168491E816026
:101260000268C16901EB8201C1ED000A90ED030A39
:1012700030EE200A80ED030A0168491C01609FEDF1
:10128000340A80ED050A90ED031A90ED000AB8EEDD
:10129000C00AC1EE001AC0ED041A26E00168491C1C
:1012A0000160D0E90012914201DB00210160026877
:1012B000C16901EB820191ED000A90ED031A31EE54
:1012C000201A31EE400A80ED030A90ED031A90EDEA
:1012D000010AB8EEC00AC1EE001AC0ED041A026895
:1012E000C16901EB8201C1ED000A90ED040A70476B
:1012F00000B50346B0EE402AB0EE420A1846FFF7AA
:10130000A7FF00BD00B5052212491348FFF70DFFE6
:10131000052212491248FFF708FF05221149124819
:10132000FFF703FF052211491148FFF7FEFE642273
:1013300010491148FFF7F9FE4FF496620F49104823
:10134000FFF7F3FE64220F490F48FFF7EEFE00BDE2
:101350000000000074380020F43700208838002096
:10136000143800209C38002034380020B038002089
:1013700054380020E4380020C4380020B43A00205B
:10138000743A0020744D0020943A002010B581B2C8
:101390004FF6FF7303EA1042FE4C21700B0A637094
:1013A000A270130AE3702346D3ED000AB0EE600A80
:1013B00010BD70B502460C46FF25FF2309E012F868
:1013C000010B80EA0501F448405C80EA0305F3481C
:1013D000435C2000A4F10106B4B2F0D143EA052039
:1013E00070BD014648780A7840EA0220704770B51F
:1013F000A0B005460C4622462946684613F05EFE1C
:1014000021462846FFF7D5FF064632122046611CCA
:10141000CCB20DF80020F2B22046611CCCB20DF81F
:10142000002022466946012003F036FE20B070BD40
:1014300038B50446DA4800788DF80000D84840787E
:1014400040F080008DF801008DF8024003216846CD
:10145000FFF7CDFF38BD1CB5002405E0D048005D86
:101460000DF80400601CC4B2062CF7DB06216846A8
:10147000FFF7BDFF1CBD0246A2F202300B2841D28D
:10148000DFE800F0060A0E40404012242E383C00EF
:101490000BB2C448838337E00BB2C248438333E0C6
:1014A0000BB2C04803832FE0012907D1BD48B0F932
:1014B000220040F00803BB48438406E0B948B0F975
:1014C000220040F01003B74843841DE0012906D1F3
:1014D000B448B0F9260040F00103B248C38413E0D9
:1014E000012906D1AF48B0F9220040F00103AD4810
:1014F000438409E008B2AB4B588205E00BB2A9481F
:10150000838201E00020704700BF0120FBE72DE946
:10151000F0410020A24981F821000846807F0B2875
:1015200003DA032081F8210026E09D48801CFFF7A4
:1015300058FF06469A48001DFFF753FF0546984896
:101540008779002414E06100C91D954A8818FFF7C7
:1015500048FF8046311988B24146FFF78CFF0128C9
:1015600004D002208E4981F8210003E0601CC4B23F
:10157000AC42E8DB00BF00BF894890F8210010B9F9
:10158000FFF769FF04E0864991F82100FFF750FF5B
:10159000BDE8F08170B50020814981F8210008463E
:1015A000807F082803D0032081F8210014E07C48C4
:1015B000801CFFF716FF05467948001DFFF711FF55
:1015C000044621462846FFF756FF012803D0022093
:1015D000734981F8210000BF714890F8210010B9CB
:1015E000FFF739FF04E06E4991F82100FFF720FF73
:1015F00070BD10B503460A46A3F201300A283AD25C
:10160000DFE800F005090D1115191D212931654884
:10161000808D81B231E06348808B81B22DE06148DA
:10162000C08D81B229E05F48408E81B225E05D48DF
:10163000408F81B221E05B48808F81B21DE0594824
:10164000C08F81B219E057480088022801D10121DA
:1016500000E0002111E05348408D022801D1012112
:1016600000E0002109E04F48008D022801D101214E
:1016700000E0002101E0002010BD00BF0812107042
:1016800051700120F8E770B590B00020444981F80E
:1016900021000846807F082803D0032081F821001C
:1016A00027E03F48801CFFF79CFE06463C48001D93
:1016B000FFF797FE0546202D04D90320384981F80D
:1016C000210016E0002410E06846022202FB04011B
:1016D0003046FFF78EFF20B90220314981F8210002
:1016E00005E0701C86B2601C84B2AC42ECDB00BF2B
:1016F00000BF2B4890F8210000285DD1284981F8CF
:10170000A2000846017890F8A22090F8A200401CA0
:10171000234B83F8A20003F1220081542238417840
:1017200090F8A22090F8A200401C83F8A20003F1D8
:10173000220081546806010E184690F8A22090F805
:10174000A200401C83F8A20003F12200815400246F
:101750001EE01DF81410124890F8A22090F8A20084
:10176000401C0F4B83F8A20003F12200815460005B
:10177000401C1DF80010184690F8A22090F8A20016
:10178000401C83F8A20003F122008154601C84B243
:10179000AC4209E0300600208A6701088A68010827
:1017A000044F002024730020D3DB374890F8A210A8
:1017B0002230FFF71CFE04E0334991F82100FFF7C7
:1017C00037FE10B070BD10B52F484078032804D004
:1017D000062805D0102809D105E0FFF754FF0EE0D8
:1017E000FFF7D8FE0BE0FFF792FE08E00120264944
:1017F00081F8210091F82100FFF71AFE00BF00BF19
:1018000010BD70B52148007800B970BD00201F4997
:1018100008701D48807F042800DA0EE01A48817F96
:10182000FFF7C7FD044604B107E017480578012D0E
:1018300000D002E0FFF7C7FF00BF00201249887701
:1018400000BFE2E7012011490870704770B50446F7
:1018500000200E49087040F22F150D4A294602203B
:1018600004F09DFA0848807F1E2807DA0648817F29
:10187000807F401C044A90771046445470BD00BFDE
:10188000FFF7BFFFFCE70000044F002034060020F4
:10189000451800082DED028B86B000240CF07CF872
:1018A0000CF0BBF91021DA4806F07EFCD948DA4B7F
:1018B000DA4A01210090DA4811F062F9642300222B
:1018C000114610460BF040FA0CF0CBF910B9D5A038
:1018D00014F040FADC4900200EF0BFF8DB49087034
:1018E000084600780D2822D1D9A014F033FA00223E
:1018F000012110460FF021F9D449087008460078FC
:1019000078B9DDA014F026FA002101200EF0A5F828
:10191000CE490870CC4901200EF09FF8CB490870E1
:1019200011E0CA480178D9A014F014FA0BE0C748B6
:10193000007828B1C5480178DCA014F00BFA02E069
:10194000EAA014F007FAF04902200EF086F8BF4929
:1019500008700846007828B108460178EBA014F01A
:10196000F9F902E0F9A014F0F5F9B748FD4908606B
:101970000122FDA1FB480EF088F8B4490870084622
:10198000007880B9FC4B4FF4C072FC49F5480EF06A
:101990004CF9AE4908700846007808B901F0FEFA23
:1019A000F0480EF089FB64230122002108460BF069
:1019B000CBF9FCE364230022114610460BF0C4F976
:1019C0009649974811F011FB601C84B20A2094FBE1
:1019D000F0F100FB1140002863D1E848D0F8540131
:1019E000E649B1F92C100844E449C1F8540108460D
:1019F000D0F85811B0F91C000144E048C0F8581163
:101A0000D0F85C11B0F92E000144DC48C0F85C113C
:101A1000D0F86011B0F930000144D848C0F8601126
:101A2000D0F86411B0F932000144D448C0F8641110
:101A3000D0F86811B0F934000144D048C0F86811FA
:101A400090F87C1190F836000844C1B2CB4880F879
:101A50007C1190F87D1190F838000844C1B2C74855
:101A600080F87D11D0F86C11B0F93A000144C348F8
:101A7000C0F86C11D0F87011B0F93C000144BF48B7
:101A8000C0F87011D0F87411B0F93E000144BB48A1
:101A9000C0F87411D0F8780100F57A70B749C1F830
:101AA0007801B4F5967F78DB0024B44890F8DC0028
:101AB0000A2190FBF1F03030B1490871AF4890F83D
:101AC000DC000A2190FBF1F201FB12003030AC493E
:101AD0004871AA4890F8DD000A2190FBF1F03030FF
:101AE000A7498871A54890F8DD000A2190FBF1F222
:101AF00001FB12003030A249C871022299480DF052
:101B0000C4FF524908700846007800287ED19548E5
:101B1000C1680EF0B5FB4D490870984890F8E20096
:101B2000964991F8E110954A92F8E020934B93F88A
:101B3000DE30CDE90032CDE90210904890F8DD307A
:101B400090F8DC208FA187480FF068FB8B4890ED60
:101B5000550AB8EEC00ADFED910A80EE201A11EEA8
:101B6000105A284613F0E7FB41EC180B53EC182BE6
:101B70008BA104A814F0FEF804AA8BA179480FF0F9
:101B80004DFB401C50B977480EF096FA00210846EC
:101B90000DF063FF2D490870F1E37CE2774890ED8A
:101BA000560AB8EEC00ADFED7D0A80EE201A11EE6B
:101BB000105A284613F0BFFB41EC180B53EC182BBE
:101BC00077A104A814F0D6F804AA77A165480FF00D
:101BD00025FB6A4890ED570AB8EEC00ADFED730A9C
:101BE00080EE201A11EE105A284613F0A4FB41ECA7
:101BF000180B53EC182B6EA104A814F0BBF804AA20
:101C000069A158480FF00AFB5C48D5E0F3E10000F9
:101C100000080240D40A0020940A0020C0CC002012
:101C200014C700205344BFA8B3F5CABCBBAFB3C9A7
:101C3000B9A6A3ACBCB4BDABB9D2D4D85344BFA8E9
:101C4000A1A30D0A00000000C45F00203806002098
:101C50005344BFA8C3BBD3D0CEC4BCFECFB5CDB315
:101C6000A3ACBCB4BDABBDF8D0D0B8F1CABDBBAF5E
:101C70002E2E2E0D0A0000005344BFA8B3C9B9A6EA
:101C8000B8F1CABDBBAFA3A10D0A0000CEC4BCFE13
:101C9000B8F1CABDBBAFCAA7B0DCA3A1B4EDCEF307
:101CA000B4FAC2EBA3BA25640D0A00005344BFA8DE
:101CB000B9D2D4D8CEC4BCFECFB5CDB3CAA7B0DCA0
:101CC000A3A1BFC9C4DCCAC7D2F2CEAACEC4BCFE8F
:101CD000B3F5CABCBBAFCAA7B0DCA3A1B4EDCEF3C9
:101CE000B4FAC2EBA3BA25640D0A00005344BFA89E
:101CF000CEC4BCFECFB5CDB3B9D2D4D8B3C9B9A682
:101D0000A3A10D0A000000003464002055C5CCB921
:101D1000D2D4D8CEC4BCFECFB5CDB3CAA7B0DCA355
:101D2000A1BFC9C4DCCAC7D2F2CEAACEC4BCFEB31E
:101D3000F5CABCBBAFCAA7B0DCA3A1B4EDCEF3B467
:101D4000FAC2EBA3BA25640D0A00000055C5CCCE3B
:101D5000C4BCFECFB5CDB3B9D2D4D8B3C9B9A6A34C
:101D6000A10D0A006C660020303A636F6E666967E9
:101D70002E747874000000003C06002024730020BC
:101D8000E5060020323025642F25642F25642025A8
:101D9000643A25643A25642C000000000060EA469D
:101DA00025302E326600000025732C0000803B4554
:101DB00025302E336600000090ED580AB8EEC00AB8
:101DC0005FED060A80EE201A11EE105A284613F035
:101DD000B2FA41EC180B53EC182BAFF22C0104A80B
:101DE00013F0C8FF04AAAFF24001FE480FF016FA44
:101DF000FD4890ED590AB8EEC00ADFEDFC0A80EE0E
:101E0000201A11EE105A284613F095FA41EC180BDF
:101E100053EC182BAFF2680104A813F0ABFF04AA2F
:101E2000AFF27C01EF480FF0F9F9EF4890ED5A0A54
:101E3000B8EEC00ADFEDED0A80EE201A11EE105A5E
:101E4000284613F078FA41EC180B53EC182BAFF23C
:101E5000A00104A813F08EFF04AAAFF2B401E14878
:101E60000FF0DCF9E04890F87C0100EE100AB8EEC3
:101E7000400AF3EE0E0A80EE201A11EE105A2846A0
:101E800013F059FA41EC180B53EC182BAFF2E001A8
:101E900004A813F06FFF04AAAFF2F401D1480FF0C9
:101EA000BDF9D14890F87D0100EE100AB8EE400A65
:101EB000F3EE0E0A80EE201A11EE105A284613F0A7
:101EC0003AFA41EC180B53EC182BC9A104A813F0F3
:101ED00051FF04AAAFF23011C2480FF09FF9C24877
:101EE000808C30B9C4A2AFF24011BE480FF096F911
:101EF00010E0BD48808C012806D1C1A2AFF2581174
:101F0000B8480FF08BF905E0BFA2AFF26411B548F5
:101F10000FF084F9B44890ED5B0AB8EEC00A5FEDAB
:101F20005D0A80EE201A11EE105A284613F003FACB
:101F300041EC180B53EC182BADA104A813F01AFFB9
:101F400004AAAFF29C11A7480FF068F9A64890EDDB
:101F50005C0AB8EEC00A5FED6B0A80EE201A11EE43
:101F6000105A284613F0E7F941EC180B53EC182BE4
:101F70009FA104A813F0FEFE04AAAFF2D411994861
:101F80000FF04CF9984890ED5D0AB8EEC00A5FED8D
:101F9000790A80EE201A11EE105A284613F0CBF978
:101FA00041EC180B53EC182B91A104A813F0E2FE9E
:101FB00004AAAFF20C218B480FF030F98A4890ED5B
:101FC0005E0AB8EEC00A5FED8B0A80EE201A11EEB1
:101FD000105A284613F0AFF941EC180B53EC182BAC
:101FE000AFF2342104A813F0C5FE04AA88A17D48ED
:101FF0000FF014F930E088480078042815D17948AA
:102000000EF05AF80A22854976480DF03EFD8249C5
:10201000087008460078F8B9814B9D2281497148C3
:102020000DF0E9FE7C49087016E06E480EF044F8A9
:10203000002108460DF011FD774908700BF011FEE4
:1020400064230022114610460AF07EFE76490020E5
:102050000DF003FD7049087062480EF02DF8002065
:102060006149C1F8540100215F48C0F85811C0F817
:102070005C11C0F86011C0F86411C0F8681180F8F4
:102080007C1180F87D11C0F86C11C0F87011C0F897
:102090007411C0F87811544890F80001002867D0F6
:1020A0000222AFF23C314F480DF0EFFC5A49087064
:1020B00008460078D0B95A4B4FF4C0724A49494893
:1020C0000DF099FE544908700020474981F800013D
:1020D0005148007818B955A013F03CFE02E059A011
:1020E00013F038FE3F480DF0E7FF41E04A48007822
:1020F000042828D10A22AFF290313A480DF0C5FCED
:1021000045490870464B4FF4C072374935480DF0C9
:1021100072FE414908700020334981F800013E48B1
:10212000007818B941A013F015FE08E00021084618
:102130000DF093FC3849087042A013F00BFE2948BB
:102140000DF0BAFF14E004F0CBFB00220121104691
:102150000EF0F3FC30490870002108460DF07DFCBC
:102160002D490870304900200DF077FC2A4908708D
:102170001D48B0F8EA00002870D01B48B0F9E40010
:102180000A2190FBF1F090FBF1F201FB12003030DC
:10219000224908711448B0F9E4000A2190FBF1F2D9
:1021A00001FB120030301D4948710F4800E0E6E0A5
:1021B000B0F9E6000A2190FBF1F030301749887140
:1021C0000948B0F9E6000A2190FBF1F201FB120088
:1021D00030301249C8710448B0F8EA0000287DD0B8
:1021E00001483CE06C660020247300200000964308
:1021F00025302E3166000000CDA3D6B900000000C6
:10220000CEFCD2BA00000000C5C5D2BA0000000062
:1022100025732C0A0000000038060020E506002087
:102220003C06002048060020C45F0020C5E4D6C359
:10223000B2CECAFDB1A3B4E6B3C9B9A6A3A10D0A33
:1022400000000000C5E4D6C3B2CECAFDB1A3B4E617
:10225000CAA7B0DCA3A10D0A000000008EE0B0F810
:10226000EC000028BBD000250BE0FE49FE4810F032
:10227000BCFE01230022114610460AF065FD681CD1
:10228000C5B2642DF1DB0122F849F9480DF0FDFBE0
:10229000F849087008460078002862D1F6A013F0CB
:1022A00059FD3220F14908700A22F8480DF0EDFB83
:1022B000F049087008460078F0BB3BE0F44B4FF45F
:1022C0008062F449EA480DF0B0FCEA49087008461B
:1022D000007810B9EE48006808B931E044E0EE4BF0
:1022E000EB48EC490268E9480DF085FDE1490870CA
:1022F0000846007828B9E8480068E5490968884236
:1023000000D21DE0DA48806864214843D849C96892
:10231000B0FBF1F001B2E148A0F8EE10B0F8EE0029
:1023200081B2B52000F0C3FD012300221146104602
:102330000AF00AFDCF4800E003E000780028BDD095
:102340000BE0002102200DF088FBCA490870D44937
:1023500002200DF082FBC74908703020C349087085
:1023600002E0D0A013F0F6FC0021CC48A0F8EA105F
:10237000BF480DF0A1FEC5480DF09EFE00BFFFF75F
:1023800019BB2DE9F05F06460D4693460024A81BB5
:10239000642802D22846BDE8F09F70194108B4486D
:1023A0000DF06EFF9BF804A0012300221146104699
:1023B0000AF0CAFCAE4A7821B6480EF0D6FEAC4A06
:1023C0007821B4480EF0D1FE0624B248005D2F28D3
:1023D00001D0601C84B2601C80B20446AD49085C28
:1023E0003038C7B2601C085C202809D0601C80B25D
:1023F0000446085C303807EB870100EB4100C7B2A8
:10240000BA450DDD9A488068B04206D098495A46D0
:1024100088682946FFF7B5FF57E095488068BAE716
:10242000BA450DDA92488068A84206D090485A46CC
:1024300081683046FFF7A5FF47E08D488068AAE72E
:10244000A01C84B29348005D303800F0FF08914929
:10245000601C085C3A280AD0601C80B20446085C04
:10246000303808EB880100EB410000F0FF08A01CA9
:1024700084B28848005D303800F0FF098549601C4F
:10248000085C2C280AD0601C80B20446085C3038F6
:1024900009EB890100EB410000F0FF09B8F1000FE2
:1024A00002DCB9F1050F0DDD71488068A84206D045
:1024B0006F485A4681683046FFF763FF05E06C4875
:1024C000806868E76A48806865E76948806862E70D
:1024D0002DE9F0472DED048B054600260027B5F9C0
:1024E00000000A2190FBF1F090FBF1F201FB1200D9
:1024F00030305E490871B5F900000A2190FBF1F215
:1025000001FB1200303059494871B5F902000A2127
:1025100090FBF1F0303055498871B5F902000A217D
:1025200090FBF1F201FB120030305049C87195F870
:1025300004A006226049002002F0AEFD01224B49B2
:102540004B480DF0A2FA4B49087008460078002865
:102550007ED1474AC8214F480EF007FE60B9444873
:102560000DF0AAFD002108460DF077FA41490870E8
:10257000BDEC048BBDE8F0873D4AD16890682A46DF
:10258000FFF7FFFEADE006244248005D2F2800D093
:10259000641C4048005D2F2800D0A2E0601C044667
:1025A0003C49085C303800F0FF08601C085C2028BB
:1025B00009D0601C0446085C303808EB880100EB49
:1025C000410000F0FF08D04503D029480DF074FD0C
:1025D000CEE77F1C032097FBF0F100FB1170002871
:1025E00078D100E0641C2B48005D2C28FAD1601CD7
:1025F00000F0FF0900E0641C2648005D2C28FAD199
:1026000000202449085501EB090013F0CDFBB0EE82
:10261000409AF0EE609A9FED290B53EC102B51EC91
:10262000190B12F088FD41EC180B12F065FE0646FE
:1026300006F5FA76002E00DA002600EE106AB8EEF3
:10264000C00ADFED200A20EE200ABDEEC00A00E03D
:1026500053E010EE106A300A1B4948718E71072250
:10266000002034E0C0CC002014C70020E506002084
:102670006C66002038060020CEC4BCFEB4F2BFAAAF
:10268000B3C9B9A6A3A10D0A00000000BC6A0020CE
:1026900040060020E46C0020440600202473002043
:1026A00034640020CAFDBEDDD0B4C8EBCAA7B0DCDC
:1026B000A3A10D0A00000000280700200000000070
:1026C000000059400AD7A33D2007002002E002F095
:1026D000E3FC002601230022114610460AF034FBD9
:1026E00000BF8C4A78218C480EF03FFD00287FF413
:1026F0004AAF88480DF0E0FC3AE786480DF0DCFC74
:10270000002108460DF0A9F9844908700BF0A9FAD8
:1027100064230022114610460AF016FB804900206F
:102720000DF09BF97D4908707A480DF0C5FC00BF9B
:102730001EE710B57B4890F85D0140B9794890F8E4
:102740005E0120B9774890F85C0100287ED0002413
:10275000012275A177480DF098F970490870084674
:102760000078002873D16F4890F85C01F0B1694897
:10277000D0F85C146F480DF083FD68490870654817
:10278000D0F858146748C0F88411D0F88401FA28AA
:1027900007DD6448D0F88401FA386249C1F8800145
:1027A00038E000205F49C1F8800133E05D4890F8CF
:1027B0005E01A8B15B48D0F88011C0F88411D0F850
:1027C0008001FA2807DD5748D0F88001FA385549CA
:1027D000C1F880011EE000205249C1F8800119E0D3
:1027E0005048D0F884014F49C1F880010846D0F81C
:1027F0008401FA30C1F884010846D0F884114548B4
:10280000D0F85C04814205D94248D0F85C144548B0
:10281000C0F884114348D0F8801146480DF030FDCF
:102820003E4908703F48D0F8800170B13D4890F8AB
:102830005D0150B93F4A32213F480EF096FC3548C1
:10284000D0F858043749C1F8800101E061E052E056
:10285000002448E03348D0F884013249D1F880118F
:10286000884231D02B48D0F858142E48D0F8840133
:1028700081421AD22F4A32212F480EF076FC48B1FD
:102880004FF4407202EB441188B22E222A4900F024
:1028900031FB27E04FF4407202EB441188B22E2244
:1028A0002549323100F026FB1CE00AE04FF440726B
:1028B00002EB441188B22E221F49323100F01AFB7C
:1028C000641C052CF2DB0DE00AE04FF4407202EBD1
:1028D000441188B22E221849323100F00BFB641CDF
:1028E000052CF2DB641C052CB4DB0A48D0F8581424
:1028F0000C48C0F884110F480DF0DEFB0021094898
:1029000080F85D1180F85E110020064981F85C01B5
:1029100000BF10BD6C660020E46C0020380600206B
:10292000C45F002070710020303A6C6F672E74789D
:1029300074000000BC6A0020E4700020EC484BE00A
:10294000428B038B9A4246D0438B5A1C4283C26807
:10295000D15C428B438A9A4201DB00224283E54AE2
:10296000127822B1012A0DD0022A32D11CE0FF29AF
:1029700007D10122DF4B1A70DF4B1A60DF4A1B6858
:10298000D15427E003290BD10222DA4B1A70DA4A1C
:102990001268521CD84B1A60D84A1B68D15402E006
:1029A0000022D44B1A7015E0D34A1268521CD24B45
:1029B0001A601A4612680B2A06D30122CF4B1A70EE
:1029C0000022CC4B1A7003E0CC4ACB4B1B68D1548D
:1029D00000E000BF00E003E0C84A1278002AAFD050
:1029E00000BF7047C64878E0428B038B9A4273D091
:1029F000438B5A1C4283C268D15C428B438A9A4201
:102A000001DB00224283BF4A127822B1012A0DD095
:102A1000022A5FD121E0012907D10122B94B1A70A6
:102A2000B94B1A60B94A1B68D15454E0B64A1268CF
:102A3000521CB54B1A60032903D0062901D0102976
:102A400007D10222AF4B1A70B04AAF4B1B68D1546A
:102A500002E00022AB4B1A703DE0AB4A1268521CF8
:102A6000A94B1A60A94A1B68D154A74A1268082AC0
:102A70002ED3A64A9278062A06D10122A34B1A70B9
:102A80000022A04B1A7023E0A04A9278032A0DD1AD
:102A90009E4AD278121D9C4B1B689A4218D801227C
:102AA0009A4B1A700022974B1A7011E0974A92784D
:102AB000102A06D10122954B1A700022914B1A70F0
:102AC00006E0914A1268322A02D300228D4B1A7016
:102AD00001E001E000BF00E003E08C4A1278002A28
:102AE00082D000BF70478A4847E0428B038B9A42EE
:102AF00042D0438B5A1C4283C268D15C428B438ACA
:102B00009A4201DB00224283824A127822B1012AD2
:102B10000ED0022A2ED10CE0412908D102227D4B91
:102B20001A7001227C4B1A607C4A1B68D15422E047
:102B300021E0794A1268521C774B1A601A461268D3
:102B4000322A03D30022734B1A7012E00A2901D0F3
:102B50000D290AD1714A704B1B68D15401226F4B69
:102B60001A7000226B4B1A7003E06C4A6A4B1B68A8
:102B7000D15400E000BF00E003E0684A1278002A68
:102B8000B3D000BF704766486DE0428B038B9A421A
:102B900068D0438B5A1C4283C268D15C428B438A03
:102BA0009A4201DB002242835E4A127832B1012A46
:102BB0000ED0042A29D0052A52D133E05A2906D151
:102BC0000122584B1A70584B1A60584A517048E00D
:102BD000554A1268521C544B1A60A52907D1042289
:102BE000504B1A70514A504B1B68D1540CE01029BD
:102BF00007D103224B4B1A704C4A4B4B1B68D154E4
:102C000002E00022474B1A702BE0474A1268521C20
:102C1000454B1A600522434B1A70444A424B1B68CD
:102C2000D1541EE0404A1268521C3F4B1A601A46AB
:102C30001268C82A03D300223A4B1A700FE03B4AAD
:102C4000394B1B68D154D278D21C374B1B689A423F
:102C500005D80122354B1A700022324B1A7000E061
:102C600000BF00E003E0314A1278002A8DD000BF97
:102C7000704710B52E4C12E0608B218B88420DD02E
:102C8000628B511C6183E168885CFEF7DFFD608B1D
:102C9000618A884203DB0020608300E003E025486E
:102CA00000780028E8D000BF10BD01231A4600219B
:102CB00008460AF049F8002009F045FA1E49086064
:102CC00003F004F813E0FFF7D4FFFFF75CFFFFF712
:102CD0000AFFFFF787FEFFF731FE052300221146AA
:102CE00010460AF031F8641CC82C00DD0024EAE725
:102CF000287E0020480700204C070020508200203A
:102D00005C820020400700204407002084860020C9
:102D1000B88600205007002054070020E08A0020D9
:102D2000A4740020380700203C070020CC78002045
:102D300098790020C07D00203007002010B50346A0
:102D40009FEDFA0AFA4880ED2D0A91ED000A80ED18
:102D5000320A012034E001EB800494ED000A441EA5
:102D600001EB8404D4ED000A30EE600A03EB80042A
:102D7000D4ED000A441E03EB840494ED001A70EEB7
:102D8000C10A80EE201AEA4CB43404EB800484EDCE
:102D9000001A01EB800494ED000AE54CB43404EB16
:102DA0008004D4ED000A03EB800494ED001A00EED9
:102DB000C10ADF4CC83404EB800484ED000A401CD7
:102DC0009042C8DB10BDF0EE400AD94890F8B00040
:102DD000002802DCB7EE000A68E0D54890ED221A20
:102DE000B4EEE01AF1EE10FA08DD90ED321AD0EDF3
:102DF0002D1AB0EE410A01EEA00A57E0CC4890F837
:102E0000B000401ECA49883101EB800090ED001AE5
:102E1000B4EEE01AF1EE10FA16D2C54890F8B00000
:102E2000401E403101EB800090ED001AC04890F840
:102E3000B000401E143901EB8000D0ED001AB0EE56
:102E4000410A01EEA00A31E0002028E0B8498831AB
:102E500001EB800191ED001AB4EEE01AF1EE10FAE8
:102E60001CD8B3498831421C01EB820191ED001A54
:102E7000B4EEE01AF1EE10FA10DBAD49C83101EB07
:102E8000820191ED001AAA49B43101EB8201D1ED22
:102E9000001AB0EE410A01EEA00A06E0401CA44967
:102EA00091F8B010491E8142D0DC00BF7047FEB5DA
:102EB00004460D465A208DF80000A5208DF801002B
:102EC00005208DF8020082208DF8030020128DF875
:102ED0000400E0B28DF8050028128DF80600E8B273
:102EE0008DF80700002600BF08226946002002F086
:102EF000D3F8FEBD2DE9F04707468946154605F192
:102F0000070A504613F006FC044600265A2020709B
:102F1000A5206070E81CA0708220E070381220713B
:102F2000677100BF05E019F80610B01D2154701C30
:102F300086B2AE42F7DB4FF0000800BFA078C21C9B
:102F40002146002002F0A8F8204613F0BBFBBDE8A4
:102F5000F0874FF47A717648A0F86E106421A0F8DB
:102F600072104FF47A71A0F876100021A0F8781052
:102F70004FF47A71A0F87A100021A0F87C104FF479
:102F80007A71A0F87E100021A0F8801041F28831FB
:102F900081824FF4FA606649488270470020644994
:102FA00081F80001002162484184A0F88210C184A8
:102FB00000205F49088000215D48C183018541856B
:102FC000002004E000225B4921F81020401C0A2860
:102FD000F8DD70472DED028B0024FFF7BAFFA9E260
:102FE0000121554805F0D1F818B101215048C1869A
:102FF00002E000214E48C18602214F4805F0C5F885
:1030000018B101214A48018702E0002148480187A0
:103010004A48008810B90021454881844448B0F9E5
:103020002C00C82804DD01204149A1F8020103E079
:1030300000203F49A1F802013D48B0F91A000028DC
:103040002BDD3B48B0F92E003D4948433849498BB8
:103050004FF47A7211FB02F190FBF1F0692804DD64
:1030600001213348A0F8041117E03148B0F92E00CF
:10307000334948432E49498B4FF47A7211FB02F1D0
:1030800090FBF1F05F2804DA02212948A0F804112E
:1030900003E000212648A0F804112548B0F91800E3
:1030A00000282BDD2248408E642110FB01F12048CE
:1030B000B0F9180091FBF0F0692806DD01211C48E9
:1030C000A0F80811A0F80A1118E01948408E6421F0
:1030D00010FB01F11648B0F9180091FBF0F05F28E1
:1030E00006DA02211248A0F80811A0F80A1105E03A
:1030F00000210F48A0F80811A0F80A110C48B0F9F7
:103100003A0041F29411884204DD01210848A0F8F8
:1031100010111BE00648B0F93A00B0F5FA7F11DA59
:1031200002210348A0F8101110E000000000000088
:103130002473002026740020000802407A09002031
:10314000A08601000021FC48A0F81011FA48B0F94F
:103150003C0041F28831884204DD0121F648A0F8A4
:10316000121103E00021F448A0F81211F248B0F95E
:103170003E0042F6F821884204DD0121EE48A0F825
:1031800014110FE0EC48B0F93E0042F228318842B9
:1031900004DA0221E848A0F8141103E00021E6480F
:1031A000A0F814110021E448A0F8161100241CE036
:1031B000E148008802280CD1DF48B0F8161100F56C
:1031C000817030F81400084401B2DB48A0F81611F1
:1031D00003E00021D94820F814100A2300221146E8
:1031E000104609F0B1FD601CC4B20A2CE0DBD248E5
:1031F000B0F91601002803DD0121CF48A0F816110F
:10320000002410E0CC4A2C3232F8142091B244F061
:103210006000FFF74CFE0A2300221146104609F019
:1032200093FD601CC4B2092CECDD00240FE0C24AFF
:1032300032F8142091B244F01000FFF738FE0A2350
:1032400000221146104609F07FFD601CC4B2082C14
:10325000EDDD002410E0B84A403232F8142091B27B
:1032600044F09000FFF723FE0A2300221146104687
:1032700009F06AFD601CC4B20F2CECDD002410E0E4
:10328000AD4A123232F8142091B244F03000FFF708
:103290000EFE0A2300221146104609F055FD601C5F
:1032A000C4B20C2CECDD002410E0A34A683232F8E2
:1032B000142091B244F0D000FFF7F9FD0A23002258
:1032C0001146104609F040FD601CC4B20D2CECDD27
:1032D00000240FE0994A32F8142091B244F07000B3
:1032E000FFF7E5FD0A2300221146104609F02CFDE8
:1032F000601CC4B20A2CEDDD002410E08F4A1E3A97
:1033000032F8142091B244F0B000FFF7D0FD0A2348
:1033100000221146104609F017FD601CC4B2052CAE
:10332000ECDD002410E0854A163232F8142091B208
:1033300044F46060FFF7BBFD0A23002211461046EB
:1033400009F002FD601CC4B2182CECDD7A48C08D77
:1033500020B37948808B7849898D10FB01F04FF4B8
:103360007A7148437449B1F92E1090FBF1F000EEE8
:10337000100AB8EEC08A7248B0F9000000EE100AD8
:10338000B8EEC00AFFF71FFDC8EE000ABDEEE00A66
:1033900010EE100A01B26848418602E0002166483A
:1033A00041866548408F38B36348418EC08F11FB1A
:1033B00000F000EE100AB8EEC00ADFED620A60EE1F
:1033C000200A5D48B0F93A0000EE100AB8EEC01AC3
:1033D0009FED5D0AF7EE001A01EE210A9FED5B1AE0
:1033E00020EE010A80EE801ABDEEC10A10EE100A2E
:1033F00001B25148818602E000214F4881864E4843
:10340000C08B4D4948800846C08B88850846808D12
:1034100088800846408BC8800846C08D08810846D1
:10342000008B48810846408E88810846008CC88100
:103430000846808E08824648D0ED040A0846B0F956
:10344000720000EE100AB8EEC00A20EE800ABDEE4F
:10345000C00A10EE100A01B23748C185C08F68B3A8
:103460003548B0F92E0000EE100AB8EEC00ADFEDC4
:10347000370A60EE200A3048B0F93A0000EE100A30
:10348000B8EEC01A9FED300AF7EE001A01EE210ADD
:1034900060EE800A2848B0F93E0000EE100AB8EE4F
:1034A000C00A9FED281A20EE010A80EE801ABDEEB8
:1034B000C10A10EE100A01B21F4801861E48408F53
:1034C00030B31D48018BC08F11FB00F000EE100AD5
:1034D000B8EEC00ADFED1B0A60EE200A1648B0F90C
:1034E0003A0000EE100AB8EEC01A9FED170AF7EE88
:1034F000001A01EE210A9FED151A20EE010A80EE56
:10350000801ABDEEC10A10EE100A01B20A48018409
:103510001048D0F8100301B20748A0F8EC100622BA
:103520000D49002001F0B8FDC823002211461046C5
:1035300009F00AFC54E500002473002026740020E2
:1035400066070020339388430066D54666A6CA42C4
:103550009031002014C7002058070020FE4A92ED49
:10356000000AF7EE000A30EE200A82ED000A92ED22
:10357000000ADFEDFA0AB4EEE00AF1EE10FA09DB18
:10358000F74A1278521CF64B1A709FEDF60AF24A6F
:1035900082ED000AF24A1278642A07DD9FEDF10AF3
:1035A000ED4A82ED000A0022ED4B1A70704786B09A
:1035B00002F0BAFCECA2D2E900109268CDE9040254
:1035C00003910025EB48ECA10022ED4BCDE9002151
:1035D000029002224FF41671002009F06CFCE949B8
:1035E00008600121E84804F0DFFD002302221946AB
:1035F000184609F0A9FBF8E3E44890F8400100F010
:10360000080000287ED0E248007800287BD1E148FD
:1036100030F81500002877D005F11600DD4931F8A3
:10362000100070B3D948B0F8482105F10A0031F80C
:10363000100012FB00F1D548B0F844014FF47A7243
:1036400010FB02F091FBF0F000B2D349088008466D
:10365000B0F9000000EE100AB8EEC00AFFF7B3FBA5
:10366000CD48B0F9000000EE900AF8EEE00A20EE36
:10367000200ABDEEC00A10EE100A01B2C348A0F83D
:1036800046110221C04804F08DFD00230222194694
:10369000184609F059FBBD48B0F9480100EE100A80
:1036A000B8EEC00ADFEDBD0A20EE200ADFEDBC0A4D
:1036B00020EE200AB1EE041AC0EE010AB348B0F9B8
:1036C000720000EE100AB8EEC00A80EE801ABDEE5D
:1036D000C10A10EE104A42F2107094FBF0F0303044
:1036E000C0B28DF80D004FF47A7094FBF0F00A210F
:1036F00090FBF1F201FB12003030C0B28DF80E00E9
:10370000642002E09CE057E054E094FBF0F090FB72
:10371000F1F201FB12003030C0B28DF80F000A2028
:1037200094FBF0F090FBF1F201FB12003030C0B2DC
:103730008DF810000A2094FBF0F100FB11403030AE
:10374000C0B28DF81100092203A9052001F0A4FCE4
:103750008E48B0F844118183B0F84611C183B0F8A7
:103760004811418305F10A008A4931F81010874851
:1037700001834FF480718B4804F014FD8348B0F945
:10378000220040F002018148418405F108007F4990
:103790000880C82300221146104609F0D5FA0120FE
:1037A000814908807A49087072497648006809F0B2
:1037B00014FD01E0681CC5B2674890ED000A9FED5A
:1037C000671AC0EE010A6648007800EE100AB8EEEB
:1037D000400A70EE800A6F4830F9150000EE100ABA
:1037E000B8EEC00A9FED711AC0EE011AF4EEE10ABC
:1037F000F1EE10FA12DB681CC5B2002064490870B3
:10380000574908709FED570A534880ED000A594BFD
:10381000002211465B48006809F01FFD0A2D0FDBEE
:1038200000255A48B0F9400120F008015748A0F897
:103830004011B0F9400140F010015448A0F8401187
:10384000524890F8400100F0100038B34F48B0F9EA
:10385000400120F008014D48A0F84011B0F94001A6
:1038600020F010014948A0F84011B0F9220040F0C2
:1038700010014648418400250020454908703D4B11
:10388000002211463F48006809F0E7FC0020344957
:1038900008709FED340A304880ED000A3B4890F8EC
:1038A000220000F00800002854D03848808B78B1FE
:1038B0003648418B008B11FB00F13448808B4FF46C
:1038C0007A7210FB02F091FBF0F000B232490880EE
:1038D0003148B0F9000000EE100AB8EEC00AFFF758
:1038E00072FA2D48B0F9000000EE900AF8EEE00AF6
:1038F00020EE200ABDEEC00A10EE100A01B22348E5
:10390000C1830221204804F04DFC00230222194605
:10391000184609F019FA1D48B0F91A0000EE100A0D
:10392000B8EEC00ADFED1D0A20EE200ADFED1C0A0A
:1039300020EE200AB1EE041AC0EE010A1348B0F9D5
:10394000720000EE100AB8EEC00A80EE801ABDEEDA
:10395000C10A2DE086E000006C07002000007042E4
:1039600070070020000000004136343030300D0A6E
:103970000D00000078070020746D72310000000017
:103980005D35000874070020000802402473002001
:10399000690700203C74002066070020CDCCCC4095
:1039A00000007A44001002407A0900200000C8425A
:1039B00010EE104A42F2107094FBF0F03030C0B2BA
:1039C0008DF80D004FF47A7094FBF0F00A2190FB13
:1039D000F1F201FB12003030C0B28DF80E0064200D
:1039E00094FBF0F090FBF1F201FB12003030C0B21A
:1039F0008DF80F000A2094FBF0F090FBF1F201FB30
:103A000012003030C0B28DF810000A2094FBF0F1A3
:103A100000FB11403030C0B28DF81100092203A91B
:103A2000052001F039FB4FF48071FE4804F0BAFB29
:103A3000FD48B0F9220040F00201FB484184B0F992
:103A4000220020F00801F84841840220F64908804D
:103A5000C82300221146104609F076F90120F349E7
:103A6000088035E0F04890F8220000F0100078B3AC
:103A7000ED48B0F9220020F01001EB48418400210C
:103A8000C1830221EA4804F08FFB30208DF80D003D
:103A90008DF80E008DF80F008DF810008DF81100D4
:103AA000092203A9052001F0F7FADF48B0F9220046
:103AB00040F00401DC4841840020DB490880C82331
:103AC00000221146104609F03FF90120D74908802D
:103AD000D84890ED050AB5EEC00AF1EE10FA05D10E
:103AE0004FF48071CF4804F05FFB04E04FF4807125
:103AF000CC4804F057FBCC4890F85C0000F0010083
:103B000000287DD0C848B0F95C0020F00101C6480B
:103B1000A0F85C10B0F8540090B1C348B0F856104B
:103B2000B0F84A0011FB00F1BF48B0F854004FF460
:103B30007A7210FB02F091FBF0F000B2BE490880EF
:103B4000BD48B0F9000000EE100AB8EEC00AFFF759
:103B50003AF9B948B0F9000000EE900AF8EEE00A30
:103B600020EE200ABDEEC00A10EE100A01B2AE48E7
:103B7000C183B0F856104183B0F854108183B0F877
:103B80004A1001830221AA4804F00CFB0023022200
:103B90001946184609F0D8F8A348B0F9560000EEC7
:103BA000100AB8EEC00A5FED830A20EE200A5FED2E
:103BB000840A20EE200AB1EE041AC0EE010A9A48E7
:103BC000B0F9720000EE100AB8EEC00A80EE801A5A
:103BD000BDEEC10A10EE104A42F2107094FBF0F0F4
:103BE0003030C0B28DF80D004FF47A7094FBF0F0D5
:103BF0000A2190FBF1F201FB12003030C0B200E06C
:103C000044E08DF80E00642094FBF0F090FBF1F29C
:103C100001FB12003030C0B28DF80F000A2094FB77
:103C2000F0F090FBF1F201FB12003030C0B28DF8E1
:103C300010000A2094FBF0F100FB11403030C0B2BC
:103C40008DF81100092203A9052001F025FA4FF48F
:103C50008071744804F0A6FA7348B0F9220040F06D
:103C6000020171484184B0F9220020F008016E4839
:103C7000418402206C490880C82300221146104666
:103C800009F062F801206949088028E0664890F848
:103C90005E0000F0010010B36348B0F95E0020F050
:103CA00001016148A0F85E10B0F91E0000EE100A94
:103CB000B8EEC00A5C4880ED220AB0F9400000EE80
:103CC000100AF8EEC00A5848B0F9320000EE100AA7
:103CD000B8EEC00A80EE801A534880ED271A524889
:103CE00090F85C0000F0020000287DD04E48B0F94A
:103CF0005C0020F002014C48A0F85C10B0F85400C1
:103D000090B14948B0F85610B0F84C0011FB00F1E2
:103D10004548B0F854004FF47A7210FB02F091FB62
:103D2000F0F000B2444908804348B0F9000000EECA
:103D3000100AB8EEC00AFFF746F83F48B0F9000095
:103D400000EE900AF8EEE00A20EE200ABDEEC00A6E
:103D500010EE100A01B23448C183B0F85610418306
:103D6000B0F854108183B0F84C1001830221304820
:103D700004F018FA002302221946184608F0E4FF5E
:103D80002948B0F9560000EE100AB8EEC00ADFED7F
:103D90002B0A20EE200ADFED2A0A20EE200AB1EEDF
:103DA000041AC0EE010A2048B0F9720000EE100AB1
:103DB000B8EEC00A80EE801ABDEEC10A10EE104ABD
:103DC00042F2107094FBF0F03030C0B28DF80D006C
:103DD0004FF47A7094FBF0F00A2190FBF1F201FBB2
:103DE00012003030C0B201E056E0FCE38DF80E0066
:103DF000642094FBF0F090FBF1F201FB12003030F4
:103E0000C0B28DF80F000A2094FBF0F090FBF1F2A5
:103E100001FB12003030C0B28DF810000A2094FB74
:103E2000F0F10FE000100240247300207A09002016
:103E3000000802409031002066070020CDCCCC4025
:103E400000007A4400FB11403030C0B28DF8110000
:103E5000092203A9052001F01FF94FF48071FE48E3
:103E600004F0A0F9FD48B0F9220040F00201FB483F
:103E70004184B0F9220020F00801F8484184022072
:103E8000F6490880C82300221146104608F05CFF5E
:103E90000120F349088028E0F04890F85E0000F027
:103EA000020010B3ED48B0F95E0020F00201EB48CB
:103EB000A0F85E10B0F91E0000EE100AB8EEC00ABD
:103EC000E64880ED230AB0F9420000EE100AF8EE51
:103ED000C00AE248B0F9320000EE100AB8EEC00A9B
:103EE00080EE801ADD4880ED281ADC4890F85C00EE
:103EF00000F0040000287DD0D848B0F95C0020F024
:103F00000401D648A0F85C10B0F8540090B1D34832
:103F1000B0F85610B0F84E0011FB00F1CF48B0F8E1
:103F200054004FF47A7210FB02F091FBF0F000B2F3
:103F3000CC490880CB48B0F9000000EE100AB8EE7A
:103F4000C00AFEF740FFC748B0F9000000EE900A33
:103F5000F8EEE00A20EE200ABDEEC00A10EE100ACC
:103F600001B2BE48C183B0F856104183B0F8541076
:103F70008183B0F84E1001830221BB4804F012F98E
:103F8000002302221946184608F0DEFEB348B0F9B5
:103F9000560000EE100AB8EEC00A5FED580A20EE97
:103FA000200A5FED590A20EE200AB1EE041AC0EE95
:103FB000010AAA48B0F9720000EE100AB8EEC00A71
:103FC00080EE801ABDEEC10A10EE104A42F2107067
:103FD00094FBF0F03030C0B28DF80D004FF47A70E1
:103FE00094FBF0F00A2190FBF1F201FB120030305B
:103FF000C0B200E044E08DF80E00642094FBF0F0C5
:1040000090FBF1F201FB12003030C0B28DF80F00CE
:104010000A2094FBF0F090FBF1F201FB120030302B
:10402000C0B28DF810000A2094FBF0F100FB1140A3
:104030003030C0B28DF81100092203A9052001F02B
:104040002BF84FF48071844804F0ACF88348B0F941
:10405000220040F0020181484184B0F9220020F0A2
:1040600008017E48418402207C490880C823002240
:104070001146104608F068FE01207949088028E0C2
:10408000764890F85E0000F0040010B37348B0F971
:104090005E0020F004017148A0F85E10B0F91E0027
:1040A00000EE100AB8EEC00A6C4880ED240AB0F9A0
:1040B000440000EE100AF8EEC00A6848B0F9320079
:1040C00000EE100AB8EEC00A80EE801A634880ED58
:1040D000291A624890F85C0000F0080000287DD0A2
:1040E0005E48B0F95C0020F008015C48A0F85C1064
:1040F000B0F8540090B15948B0F85610B0F85000DC
:1041000011FB00F15548B0F854004FF47A7210FBDF
:1041100002F091FBF0F000B2524908805148B0F92A
:10412000000000EE100AB8EEC00AFEF74CFE4D4843
:10413000B0F9000000EE900AF8EEE00A20EE200A46
:10414000BDEEC00A10EE100A01B24448C183B0F8B7
:1041500056104183B0F854108183B0F85010018399
:104160000221414804F01EF8002302221946184695
:1041700008F0EAFD3948B0F9560000EE100AB8EE32
:10418000C00A5FEDD20A20EE200A5FEDD30A20EECE
:10419000200AB1EE041AC0EE010A3048B0F97200EC
:1041A00000EE100AB8EEC00A80EE801ABDEEC10A19
:1041B00010EE104A42F2107094FBF0F03030C0B2B2
:1041C0008DF80D004FF47A7094FBF0F00A2190FB0B
:1041D000F1F201FB12003030C0B200E04FE08DF888
:1041E0000E00642094FBF0F090FBF1F201FB120052
:1041F0003030C0B28DF80F000A2094FBF0F090FB35
:10420000F1F201FB12003030C0B28DF810000A202C
:1042100094FBF0F100FB11403030C0B28DF811007A
:10422000092203A9052000F037FF4FF480710A48E6
:1042300003F0B8FF0948B0F9220040F00201074836
:104240004184B0F9220020F0080104484184022092
:1042500002490880C82309E00010024024730020AE
:104260007A0900206607002000080240002211465B
:10427000104608F069FD0120FE49088028E0FE484C
:1042800090F85E0000F0080010B3FB48B0F95E0043
:1042900020F00801F848A0F85E10B0F91E0000EE0A
:1042A000100AB8EEC00AF44880ED250AB0F94600BD
:1042B00000EE100AF8EEC00AEF48B0F9320000EE46
:1042C000100AB8EEC00A80EE801AEB4880ED2A1A78
:1042D000E94890F85C0000F0100000287DD0E64826
:1042E000B0F95C0020F01001E348A0F85C10B0F8D1
:1042F000540090B1E048B0F85610B0F8520011FBED
:1043000000F1DD48B0F854004FF47A7210FB02F06F
:1043100091FBF0F000B2D9490880D848B0F900000C
:1043200000EE100AB8EEC00AFEF74DFDD348B0F912
:10433000000000EE900AF8EEE00A20EE200ABDEE42
:10434000C00A10EE100A01B2CB48C183B0F8561073
:104350004183B0F854108183B0F8521001830221D8
:10436000C74803F01FFF002302221946184608F031
:10437000EBFCC148B0F9560000EE100AB8EEC00AD6
:10438000DFEDC00A20EE200ADFEDBF0A20EE200A92
:10439000B1EE041AC0EE010AB748B0F9720000EE9F
:1043A000100AB8EEC00A80EE801ABDEEC10A10EE07
:1043B000104A42F2107094FBF0F03030C0B28DF829
:1043C0000D004FF47A7094FBF0F00A2190FBF1F2AB
:1043D00001FB12003030C0B200E044E08DF80E0066
:1043E000642094FBF0F090FBF1F201FB12003030FE
:1043F000C0B28DF80F000A2094FBF0F090FBF1F2B0
:1044000001FB12003030C0B28DF810000A2094FB7E
:10441000F0F100FB11403030C0B28DF811000922DC
:1044200003A9052000F038FE4FF48071974803F08F
:10443000B9FE9148B0F9220040F002018E48418453
:10444000B0F9220020F008018B48418402208A49FB
:104450000880C82300221146104608F075FC012090
:104460008449088028E0844890F85E0000F010003D
:1044700010B38148B0F95E0020F010017E48A0F82A
:104480005E10B0F91E0000EE100AB8EEC00A7A48BD
:1044900080ED260AB0F9480000EE100AF8EEC00AD6
:1044A0007548B0F9320000EE100AB8EEC00A80EE8E
:1044B000801A714880ED2B1A6F4890F85C0000F06C
:1044C0002000E8B36C48B0F95C0020F020016A4895
:1044D000A0F85C100020684981F8B00000BF2DE012
:1044E000411D654A403232F8111031B3114631F89E
:1044F000101011B302F1480101EB800191ED000AA7
:104500005D4991F8B020883101EB820181ED000A0C
:1045100059499C3101EB800191ED000A564991F80F
:10452000B0209C3101EB820181ED000A524991F8E3
:10453000B010491C504A82F8B010401C052800E019
:104540000FE0CDDB4C4890F8B02000F19C018830A2
:10455000FEF7F4FB4848B0F9220040F0100146484D
:104560004184454890F8820000F00400E0B34248DE
:10457000B0F9820020F004013F48A0F88210B0F8A2
:1045800070004FF4C85110FB01F0052190FBF1F1D0
:104590003948B0F9720091FBF0F442F2107094FBCC
:1045A000F0F03030C0B28DF80D004FF47A7094FB0B
:1045B000F0F00A2190FBF1F201FB12003030C0B2A2
:1045C0008DF80E00642094FBF0F090FBF1F201FBFB
:1045D00012003030C0B28DF80F000A2094FBF0F0CA
:1045E00090FBF1F201E0B1E014E001FB1200303089
:1045F000C0B28DF810000A2094FBF0F100FB1140CE
:104600003030C0B28DF81100092203A9052000F056
:1046100043FD29E0184890F8820000F0080018B324
:104620001548B0F9820020F008011348A0F8821064
:10463000B0F9740000EE100AB8EEC00A1448D0EDCC
:10464000040A80EE201ABDEEC10A10EE100A01B273
:104650000948A0F87210B0F97200002804DA4FF48B
:104660007A710548A0F87210034890F8820000F0B3
:1046700001000FE07A090020247300206607002063
:1046800000080240CDCCCC4000007A44001002402B
:1046900090310020A8B12E48B0F9820020F001012D
:1046A0002B48A0F882100120294908800846B0F95B
:1046B000220040F00201264841840120254908805B
:1046C0003EE02348008801281DD12148408CD0B904
:1046D00020480088A0BB1E48B0F9220040F40071B9
:1046E0001B48418401211C4803F05EFDC8230022C1
:1046F0001146104608F028FB0120164908800020CA
:10470000134908801CE0124890F8820000F0020073
:10471000B0B10F48B0F9820020F002010C48A0F8B7
:104720008210B0F86A004FF47A7110FB01F108486A
:10473000B0F96C0091FBF0F001B20548A0F86E10E2
:104740000A2300221146104608F0FEFAFEF754BF75
:10475000247300207A0900200008024010B51921B6
:10476000BB48FCF78EFC1B22B949032000F094FCE7
:10477000642300221146104608F0E6FA1B22B449D1
:10478000032000F089FC4FF4FA7300221146104612
:1047900008F0DAFA0822AF49032000F07DFCC823B4
:1047A00000221146104608F0CFFA0822A94903203A
:1047B00000F072FCC82300221146104608F0C4FA2B
:1047C00010BD1CB5A4A103C9CDE9000100253EE13F
:1047D00028466D1C00F0010020B108226946032024
:1047E00000F05AFCC82300221146104608F0ACFA2B
:1047F0009B48408D022817D19A480088A0B9012112
:10480000994803F0D1FCC82300221146104608F055
:104810009BFA01219248418508229449032000F027
:104820003BFC01208F4908808D48008D022817D15C
:104830008C480088A0B901218B4803F0B5FCC8233F
:1048400000221146104608F07FFA012184480185B4
:1048500008228649032000F01FFC012081490880BE
:104860007F4890F8260000F00100F0B102217C485A
:10487000418501217C4803F095FC022074490872AF
:104880001F204872402088721320C8738820087443
:10489000FFF764FF7248B0F9260020F0010170486C
:1048A000C18401206F490880D1E06D4890F8220052
:1048B00000F0010058B302216948018501216A48CE
:1048C00003F070FC6648418AB0F86E0011FB00F0FE
:1048D0004FF47A7190FBF1F084B202205C490872C7
:1048E0005F48808A000A48725D48007D8872201205
:1048F000C8730C74FFF732FF5948B0F9220020F05A
:104900000101574841840120564908809FE05448DE
:1049100090F8220000F0800008B3082254490320D8
:1049200000F0BAFB4FF4FA7300221146104608F06B
:104930000BFA08224F49032000F0AEFB4FF4FA7344
:1049400000221146104608F0FFF901214448018574
:10495000B0F9220020F080014148418477E04048CE
:10496000408C00F4007038B301213F4803F01CFC78
:104970000220374908723A48B0F86A00000A4872C3
:10498000374890F86A0088723548B0F86800000A25
:10499000C873334890F868000874FFF7DFFE3048AA
:1049A000B0F9220020F400712D4841841F202849CD
:1049B0004872402088724AE0294890F8220000F0AE
:1049C0000200F0B10121284803F0EEFB2448C18B1E
:1049D000B0F86E0011FB00F04FF47A7190FBF1F02B
:1049E00084B201201A4908722012C8730C74FFF7B0
:1049F000B5FE1B48B0F9220020F00201184841849E
:104A000025E0174890F8220000F00400C8B1012109
:104A1000154803F0C9FB08221449032000F03CFBB1
:104A2000C82300221146104608F08EF90C48B0F950
:104A3000220020F004010A484184002141850185BB
:104A400005E0C82300221146104608F07DF9BFE6B4
:104A50009E0900207E09002001039C7200010A418A
:104A6000247300207A0900200008024086090020F3
:104A70008E090020960900201CB505A103C9CDE9C7
:104A8000000108226946022000F006FB1CBD000060
:104A9000FF03000000031015704700BFFEE700BFD2
:104AA000FEE700BFFEE700BFFEE7704770477047B4
:104AB00010B508F0CBFD04460B480078401C0A49AD
:104AC0000870204608F0C6FD06F08DF906F08FF854
:104AD0000648006808B9012000E00020034908608A
:104AE00010BD704770470000390A0020840242421E
:104AF00008B500214FF0006003F0A6F94FF4E06024
:104B000003F068F93D208DF8000000208DF80100C9
:104B10008DF8020001208DF80300684603F05FF96C
:104B200008BD00007FB505F025FC022003F044FF1E
:104B3000684603F070FF4FF47A720098B0FBF2F110
:104B4000B1F1807F00D31DE021F07F40401E4FF087
:104B5000E022506150170F22002807DA13071D0EBC
:104B60000B4B00F00F04241F1D5503E013071C0E10
:104B7000084B1C5400BF00204FF0E022906107203A
:104B8000106100BFFFF7B4FF01F0E6F97FBD000040
:104B900018ED00E000E400E008B54FF4E06003F039
:104BA00019F925208DF8000000208DF80200012061
:104BB0008DF80300684603F012F926208DF80000F6
:104BC00001208DF802008DF80300684603F007F914
:104BD00027208DF8000002208DF8020001208DF8BA
:104BE0000300684603F0FBF834208DF80000032032
:104BF0008DF8020001208DF80300684603F0EFF8FD
:104C000047208DF8000005208DF8020001208DF866
:104C10000300684603F0E3F808BD00B589B0012140
:104C2000084603F08DFF0121102003F0CDFF01A8FD
:104C300005F0E2F94FF4C060079002208DF82000E3
:104C40008DF8210000208DF8220001208DF823002E
:104C500007A9F84803F02AFA07220921F54803F0CA
:104C6000B0FA07220A21F34803F0ABFA01A9F2488F
:104C700005F0B2F94FF4E13003900020ADF81000D8
:104C8000ADF81200ADF81400ADF818000C20ADF826
:104C9000160003A9E84805F02DF9012240F225513C
:104CA000E54805F065FA40F22661E34805F0D2FADE
:104CB0000121E14805F0A6F94021DF4805F08AFA14
:104CC0000121084603F03CFF0121480403F06BFF7B
:104CD0000C20079002208DF820008DF82100002084
:104CE0008DF8220001208DF8230007A9D14803F098
:104CF000DDF907220221CF4803F063FA07220321DE
:104D0000CC4803F05EFA01A9CC4805F065F94FF4F0
:104D1000E13003900020ADF81000ADF81200ADF8BE
:104D20001400ADF818000C20ADF8160003A9C34814
:104D300005F0E0F8012240F22551C04805F018FACC
:104D40000121BE4805F05EF94021BC4805F042FA59
:104D50000121880403F027FF0121022003F0F0FE67
:104D60004FF44060079002208DF820008DF821005C
:104D700000208DF8220001208DF8230007A9B048FB
:104D800003F094F907220A21AD4803F01AFA07222A
:104D90000B21AB4803F015FA4FF416500390002096
:104DA000ADF81000ADF81200ADF81400ADF8180021
:104DB0000C20ADF8160003A9A24805F09BF80122CB
:104DC00040F225519F4805F0D3F901219D4805F097
:104DD00019F940219B4805F0FDF90121084603F02F
:104DE000AFFE0121C80403F0DEFE0320079002207D
:104DF0008DF820008DF8210000208DF82200012080
:104E00008DF8230007A98B4803F050F908220021F0
:104E1000884803F0D6F908220121864803F0D1F929
:104E20004FF4165003900020ADF81000ADF81200BA
:104E3000ADF81400ADF818000C20ADF8160003A969
:104E4000814805F057F8012240F225517E4805F0CF
:104E50008FF901217C4805F0D5F840217A4805F00A
:104E6000B9F90121042003F06BFE0121202003F099
:104E7000ABFEC020079002208DF820008DF82100A5
:104E800000208DF8220001208DF8230007A96F482B
:104E900003F00CF9082206216C4803F092F908226D
:104EA00007216A4803F08DF94FF4964003900020E3
:104EB000ADF81000ADF81200ADF81400ADF8180010
:104EC0000C20ADF8160003A9614805F013F8012283
:104ED00040F225515E4805F04BF901215C4805F090
:104EE00091F840215A4805F075F909B000BD5248C3
:104EF00058490860584888605848C8604FF40070A6
:104F00000882488200208882C88208834883C8615A
:104F100008624862494852490860524888605248CD
:104F2000C8604FF400700882488200208882C882DE
:104F300008834883C8610862486242484B49086058
:104F40004B4888604B48C8604FF400700882488224
:104F500000208882C882088348834748C861474840
:104F60000862002048623848454908604548886022
:104F70004548C8604FF4007008824882002088824B
:104F8000C88208834883C8610862486230483F4944
:104F900008603F4888603F48C8604FF4007008824E
:104FA000488200208882C88208834883C8610862DA
:104FB0004862704710B5FFF79AFFFFF72EFEFFF724
:104FC000EBFD10BD2DE9F04104460E4617464FF0AB
:104FD0000008012000F09CF9A08AE18A884201D1F2
:104FE0004FF00108002000F093F9002514E0705DF7
:104FF000A28AA1688854012000F08AF9A08A401C86
:1050000080B2A082218A884201DB0020A082002099
:1050100000F07EF9681C85B2BD42E8DBB8F1010FF3
:1050200005D1012240F22771206805F0A1F8BDE802
:10503000F0810000000002400010014000440040E8
:105040000004024000480040004C004000080240BC
:1050500000140140A4740020CC740020CC76002001
:1050600098790020C0790020C07B0020287E002095
:10507000507E002050800020BB530008C75300081A
:105080005C8200208482002084840020B886002076
:10509000E0860020E08800202DE9F04105460E461C
:1050A00017460DB99C4C14E0012D01D19B4C10E02A
:1050B000022D01D19A4C0CE0032D01D1994C08E04E
:1050C000042D01D1BDE8F081052D01D1964C00E001
:1050D000F8E7E06908B1E06980473A463146204682
:1050E000FFF770FF00BFEDE713B50446012201A9E9
:1050F0002046FFF7D1FF1CBD70B504460D460120C8
:1051000000F006F9268B002000F002F9608BB04217
:1051100001D1002070BD618BE068405C28700120E7
:1051200000F0F6F8608B401C80B26083618A884290
:1051300001DB00206083002000F0EAF80120E9E7AD
:1051400070B504460E460CB9734D15E0012C01D123
:10515000724D11E0022C01D1714D0DE0032C01D1F3
:10516000704D09E0042C01D1002070BD052C01D147
:105170006D4D01E00020F8E731462846FFF7BCFFFF
:10518000F3E770B5044640F22551206805F02BF88E
:10519000D0B1206804F065FFC5B2218BE0684554AA
:1051A000208B401C80B22083618A884201DB002072
:1051B0002083606A08B1606A80475C48006840F0FC
:1051C00001005A49086005E05848006840F01000A6
:1051D0005649086040F22771206805F004F830B3A2
:1051E000E08AA18A88420CD1002240F2277120680F
:1051F00004F0BEFF012240F22661206804F0B8FFEF
:105200000EE0E38AA268D15C206804F026FFE08A01
:10521000401C80B2E082218A884201DB0020E082CB
:105220004248006840F480704049086030E040F235
:105230002661206804F0D7FF20B3E08AA18A884263
:105240000AD1002240F22661206804F091FF206A12
:1052500088B1206A80470EE0E38AA268D15C2068AA
:1052600004F0FBFEE08A401C80B2E082218A884282
:1052700001DB0020E0822D48006840F480502B497B
:10528000086005E02948006840F48030274908603C
:1052900070BD10B50120264908601F48FFF771FF57
:1052A00010BD10B50220224908601C48FFF769FFB5
:1052B00010BD10B503201E4908601948FFF761FFB3
:1052C00010BD10B504201A4908601648FFF759FFB1
:1052D00010BD10B50620164908601348FFF751FFAE
:1052E00010BD7047704770B504460D46E1B204200A
:1052F000FFF7FAFE204670BD38B5044600BF694688
:105300000320FFF71DFF0028F9D09DF8000038BDED
:1053100080F3108870470000A47400209879002062
:10532000287E00205C820020B8860020C009002072
:10533000BC0900201CB50121102003F001FC4FF432
:10534000E060009001208DF8040002208DF8050037
:1053500000208DF8060001208DF8070069460948F5
:1053600002F0A4FE4FF48071064802F01BFF4FF4D8
:105370000071044802F016FF4FF48061014802F00A
:1053800011FF1CBD001002401CB50121022003F0DA
:10539000D7FB4FF48050009001208DF804000220CC
:1053A0008DF8050000208DF8060001208DF807001B
:1053B0006946084802F07AFE1CBD4FF4805005494A
:1053C0001831088070474FF4805002491A31088024
:1053D000704700000004024008B54FF4E06002F09E
:1053E000F9FC24208DF8000000208DF801008DF8D4
:1053F000020001208DF80300684602F0F0FC08BDB1
:105400001CB50121C80303F0CEFB0121022003F0EB
:1054100097FB1820009001208DF8040002208DF8E1
:10542000050000208DF8060001208DF80700694670
:10543000F94802F03BFE2020009002208DF8050084
:1054400001208DF8040000208DF8060001208DF861
:1054500007006946F04802F029FE1CBD00B587B080
:105460000121880303F09FFB0121022003F068FB68
:105470000121102003F064FB0121042003F060FBF4
:105480004FF46040009002208DF804008DF8050074
:1054900000208DF8060001208DF807006946DE48DF
:1054A00002F004FE4FF4A040009000208DF80400AC
:1054B00002208DF8050001208DF806008DF8070008
:1054C0006946D64802F0F2FD4FF4A070009000202B
:1054D0008DF8040002208DF8050001208DF80600EB
:1054E0008DF807006946CE4802F0E0FD05220D2147
:1054F000C94802F066FE05220E21C74802F061FE8F
:1055000005220F21C44802F05CFE4FF420400090B9
:1055100002208DF8050001208DF8040000208DF890
:10552000060001208DF807006946BC4802F0BEFD68
:105530004FF42070009002208DF8050001208DF8B6
:10554000040000208DF8060001208DF80700694650
:10555000B34802F0ABFD0021B24803F038FD4FF430
:105560000051AE4802F01EFE4FF40041AB4802F07D
:1055700019FE8021AA4802F015FE0020ADF80800AF
:105580004FF48270ADF80A000020ADF80C00022044
:10559000ADF80E000120ADF810002820ADF8140081
:1055A0004FF40070ADF812000020ADF8160007208F
:1055B000ADF8180002A99B4803F026FC0121994888
:1055C00003F005FD07B000BD0021974A116004E01B
:1055D00095490968491C944A1160934909688142B8
:1055E000F6DB704770B504460D464FF400518B480A
:1055F00002F0DAFD00BF02218A4803F0A0FD002876
:10560000F9D02146874803F063FD00BF012185489A
:1056100003F095FD0028F9D0824803F056FD00BF45
:105620000221804803F08BFD0028F9D029467D48EF
:1056300003F04EFD00BF01217A4803F080FD0028F1
:10564000F9D0784803F041FD4FF40051734802F05F
:10565000A9FD70BD70B504464FF400516F4802F0CB
:10566000A3FD00BF02216F4803F069FD0028F9D0B7
:1056700021466C4803F02CFD00BF0121694803F06E
:105680005EFD0028F9D0674803F01FFD054600BF06
:105690000221644803F053FD0028F9D0002161483D
:1056A00003F016FD00BF01215E4803F048FD00280D
:1056B000F9D05C4803F009FD05464FF40051574806
:1056C00002F070FD284670BD70B504460D464FF4DB
:1056D0000041524802F068FD00BF0221514803F02A
:1056E0002EFD0028F9D021464E4803F0F1FC00BF02
:1056F00001214C4803F023FD0028F9D0494803F06C
:10570000E4FC00BF0221474803F019FD0028F9D04E
:105710002946444803F0DCFC00BF0121414803F066
:105720000EFD0028F9D03F4803F0CFFC4FF40041B4
:105730003A4802F037FD70BD70B504464FF40041A1
:10574000364802F031FD00BF0221364803F0F7FC75
:105750000028F9D02146334803F0BAFC00BF0121EC
:10576000304803F0ECFC0028F9D02E4803F0ADFCE3
:10577000054600BF02212B4803F0E1FC0028F9D0C8
:105780000021284803F0A4FC00BF0121254803F0B4
:10579000D6FC0028F9D0234803F097FC05464FF4C7
:1057A00000411E4802F0FEFC284670BD70B504465C
:1057B0000D4680211A4802F0F7FC00BF022119486B
:1057C00003F0BDFC0028F9D02146164803F080FC08
:1057D00000BF0121134803F0B2FC0028F9D01148A2
:1057E00003F073FC00BF02210E4803F0A8FC002860
:1057F000F9D029460B4803F06BFC00BF0121094892
:1058000003F09DFC0028F9D0064803F05EFC8021DF
:10581000034802F0C7FC70BD0004024000100240C3
:105820000008024000380040C409002070B504465A
:105830008021A94802F0B8FC00BF0221A74803F06C
:105840007EFC0028F9D02146A44803F041FC00BFAB
:105850000121A24803F073FC0028F9D09F4803F00F
:1058600034FC054600BF02219C4803F068FC002878
:10587000F9D00021994803F02BFC00BF0121974883
:1058800003F05DFC0028F9D0944803F01EFC0546A7
:105890008021914802F086FC284670BD70B5044610
:1058A0000D464FF400718C4802F07EFC00BF0221CF
:1058B0008A4803F044FC0028F9D02146874803F0C9
:1058C00007FC00BF0121854803F039FC0028F9D00E
:1058D000824803F0FAFB00BF0221804803F02FFC4E
:1058E0000028F9D029467D4803F0F2FB00BF0121D2
:1058F0007A4803F024FC0028F9D0784803F0E5FB4F
:105900004FF40071744802F04DFC70BD70B5044650
:105910004FF40071704802F047FC00BF02216F484D
:1059200003F00DFC0028F9D021466C4803F0D0FBB1
:1059300000BF0121694803F002FC0028F9D0674844
:1059400003F0C3FB054600BF0221644803F0F7FBE8
:105950000028F9D00021614803F0BAFB00BF012103
:105960005E4803F0ECFB0028F9D05C4803F0ADFB87
:1059700005464FF40071584802F014FC284670BDEB
:1059800070B504464FF40051554802F00DFC00BFBD
:105990000221524803F0D3FB0028F9D04FF6FF70E4
:1059A00000EA144631464D4803F092FB00BF012146
:1059B0004A4803F0C4FB0028F9D0484803F085FBAF
:1059C00005462D043220FFF7FFFD00BF02214348AA
:1059D00003F0B5FB0028F9D0A6B231463F4803F0EA
:1059E00077FB00BF01213D4803F0A9FB0028F9D057
:1059F0003A4803F06AFB05436420FFF7E5FD4FF4E6
:105A00000051374802F0CEFB6420FFF7DDFD284649
:105A100070BD70B504464FF40051314802F0C4FB2C
:105A20006420FFF7D1FD00BF02212C4803F087FB63
:105A30000028F9D02146294803F04AFB00BF012184
:105A4000264803F07CFB0028F9D0244803F03DFBF6
:105A500005464FF40051224802F0A4FB6420FFF7F2
:105A6000B3FD284670BD10B500BF02211B4803F0EE
:105A700066FB0028F9D00021184803F029FB00BF7D
:105A80000121164803F05BFB0028F9D0134803F00E
:105A90001CFB0446204610BD10B500244FF40070D6
:105AA00002F07CFAB0B1A4004FF480410D4802F03E
:105AB0005FFB00B1641C0C480068401C0A49086088
:105AC00008460068202801D1002008604FF40070CB
:105AD00002F075FA10BD00000008024000380040D6
