:020000040800F2
:1000000020CE0020CD9E0008F1460008F3460008EF
:10001000F7460008FB460008FF4600080000000005
:10002000000000000000000000000000034700087E
:1000300005470008000000005BCC000809470008E5
:10004000E79E0008E79E0008E79E0008E79E00087C
:10005000E79E0008E79E0008E79E0008E79E00086C
:10006000E79E0008E79E0008E79E0008E79E00085C
:10007000E79E0008E79E0008E79E0008E79E00084C
:10008000E79E0008E79E0008E79E0008E79E00083C
:10009000E79E0008E79E0008E79E0008F15600086A
:1000A000E79E0008E79E0008E79E0008E79E00081C
:1000B000AF5A00083B5B0008E79E0008E79E000877
:1000C000E79E0008E79E0008E79E0008E79E0008FC
:1000D000E79E0008EB4E0008FB4E00080B4F00089F
:1000E0003B470008E79E0008E79E0008E79E0008DF
:1000F000E79E0008E79E0008E79E0008E79E0008CC
:10010000E79E0008E79E0008E79E0008E79E0008BB
:100110001B4F0008E79E0008E79E0008E79E0008C6
:10012000E79E0008E79E0008E79E0008E79E00089B
:10013000E79E00083D470008E79E0008E79E00088C
:10014000E79E0008E79E0008E79E00089943010823
:10015000E79E0008E79E0008E79E00082B4F000876
:10016000E79E0008E79E0008E79E0008E79E00085B
:10017000E79E0008E79E0008E79E0008E79E00084B
:10018000E79E0008E79E0008DFF80CD014F032FE6E
:1001900000480047C510000820CE002046E021237B
:1001A0000022114610460CF0F5FB684906200CF0C1
:1001B000BAFA21230022114610460CF0EBFB6349EA
:1001C000083107200CF0AFFA212300221146104617
:1001D0000CF0E0FB5D49103103200CF0A4FA212360
:1001E0000022114610460CF0D5FB212300221146B7
:1001F00010460CF0CFFB554928310B200CF093FA38
:1002000021230022114610460CF0C4FB4F49303127
:1002100009200CF088FA21230022114610460CF028
:10022000B9FB4A49383105200CF07DFAB7E786B0B2
:100230000AF0E2FB012000214FF4A072444BCDE90B
:100240000132CDE9031006200346424A009042489D
:100250000CF07BF8012000217822404BCDE90132DF
:10026000CDE90310072003463D4A00903D480CF0BD
:100270006CF801200021A0223B4BCDE90132CDE9F1
:10028000031009200346394A009039480CF05DF804
:10029000012000214FF48C72364BCDE90132CDE9BB
:1002A000031003200346344A009034480CF04DF804
:1002B00001200021A022324BCDE90132CDE903100B
:1002C0000B2003462F4A00902F480CF03EF80120E7
:1002D00000214FF496622D4BCDE90132CDE9031098
:1002E000052003462A4A00902A480CF02EF80D23D8
:1002F000294A0021AFF25B100BF0D0FF14200CF064
:1003000079F806E04FF4FA730022114601200CF050
:1003100041FBF7E704F03AFE002301221946184694
:100320000CF038FB11E021230022114610460CF09E
:1003300031FB21230022114610460CF02BFB212318
:100340000022114610460CF025FBECE72831002076
:10035000080B0020041000209D0E0008081000204B
:10036000E41100208F2C000848160020C41800203B
:10037000B92F0008E8110020441600201B44000893
:10038000C8180020441B0020F1340008481B00203E
:10039000042E00207918000824310020FEB50746FD
:1003A0000D46AA208DF800008DF80170280A8DF8FE
:1003B0000200E8B28DF803000024002603E01DF8D7
:1003C00006000444761C042EF9DBE4B28DF80440E8
:1003D0000D208DF805000A208DF8060007226946D9
:1003E000052004F085FCFEBD70B592B00026FD48E6
:1003F0000078012814D100250BE0FA49681C085C3C
:1004000003A94855F748C078C01CA84200DC02E0A8
:100410006D1CC82DF1DB00BF0020F24908700126D9
:10042000012E7DD1F04A07CA8DE807009DF80F0024
:10043000832876D19DF8100000019DF8111040EA44
:100440002110C4B2012C0DD19DF814009DF8131099
:1004500040EA012001B29DF811001B38E34A22F85E
:100460001010A5E0032C1BD19DF814009DF813106B
:1004700040EA012001B29DF8110000F00F02DB48B4
:10048000123020F812109DF8110000F00F0008281B
:1004900005D09DF8110000F00F000028FFD087E084
:1004A000062C0FD19DF814009DF8131040EA01208E
:1004B00001B29DF8110000F00F02CC482C3020F85A
:1004C000121075E0092C0FD19DF814009DF813103F
:1004D00040EA012001B29DF8110000F00F02C3486C
:1004E000403020F8121063E00D2C50D19DF814001C
:1004F0009DF8131040EA012001B29DF8110000F0B0
:100500000F02BA48683020F812106838B0F9840039
:1005100040F2EE3188421BD104208DF8020001E048
:10052000B1E04AE080208DF8030003208DF804003C
:1005300000208DF805000C208DF806000722694682
:10054000002004F0D5FB0021A848A0F884102FE07B
:10055000A648B0F98400B0F5806F29D104208DF849
:10056000020080208DF8030003208DF80400002095
:100570008DF8050011208DF806000722694600203D
:1005800004F0B6FB00219948A0F8841010E00B2C71
:100590000ED19DF814009DF8131040EA012001B21D
:1005A0009DF8110000F00F029048E43020F812107E
:1005B00001208E4981F8000164E09DF80F00812838
:1005C00060D19DF81040202C5CD19DF8120000F005
:1005D0000F009DF81210091101EB810100EB4100A1
:1005E000824981F8DC009DF8130000F00F009DF8AF
:1005F0001310091101EB810100EB4100C1B27B48EE
:1006000080F8DD109DF8140000F00F009DF8141024
:10061000091101EB810100EB4100C1B2734880F880
:10062000DE109DF8121080F8DF109DF8160000F023
:100630000F009DF81610091101EB810100EB41003C
:10064000C1B26A4880F8E0109DF8170000F00F0072
:100650009DF81710091101EB810100EB4100C1B2B7
:10066000624880F8E1109DF8180000F00F009DF836
:100670001810091101EB810100EB4100C1B25B4888
:1006800080F8E21000BF12B070BD7047704770472D
:100690001EB50022564B1B78012B0DD1002005E022
:1006A000534C431CE35C0DF80030401C0B28F7DB77
:1006B00000234F4C23700122012A75D100229DF89E
:1006C00004309DF8034043EA0423A3F57A6399B20A
:1006D000464BB3F976304B4300EE103AB8EEC00A01
:1006E0009FED441AC0EE010A404BB3F9783000EE9A
:1006F000103AB8EEC00AB2EE041AC0EE011A30EE9B
:10070000A10ABDEEC00A10EE103A1CB2374B5C874E
:100710009DF806309DF8054043EA0421334BB3F9B8
:100720007A304B4300EE103AB8EEC00A9FED311A12
:10073000C0EE010A2D4BB3F97C3000EE103AB8EE52
:10074000C00AB2EE041AC0EE011A30EEA10ABDEEE4
:10075000C00A10EE103A1CB2244B9C879DF808305A
:100760009DF8074043EA0421204BB3F97E304B4308
:1007700000EE103AB8EEC00A9FED1E1AC0EE010A54
:100780001A4BB3F9803000EE103AB8EEC00AB2EE60
:10079000041AC0EE011A30EEA10ABDEEC00A10EE36
:1007A000103A1CB2114BDC871EBDF0B52DED048B49
:1007B000A5B09FED110AB0EE408A00270F480078DF
:1007C000012825D100241CE00C49601C085C18A9F4
:1007D000085518A8005D0D2803D018A8005D0A2848
:1007E0000ED110E068780020485D0108FC720020FE
:1007F000EC81002000007A440000000020860020E8
:10080000641C322CE0DB00BF0020FE490870012789
:10081000012F7DD100271423202204A918A805F058
:10082000E3F906460024B3E100252AE004A850F8C5
:100830002400405D3D2822D104A850F8240000780F
:1008400041280AD004A850F8240000782A2804D0AF
:10085000002004A951F82410485504A951F8242077
:10086000691C501814F084FDB0EE409AF0EE609AC6
:1008700051EC190B14F058F808EE100A07E0681C48
:10088000C5B204A850F82400405D0028CED100BFB6
:1008900004A951F82400DCA113F00FFF00BB9FED69
:1008A000DC0AB4EEC08AF1EE10FA15D8B5EEC08AB3
:1008B000F1EE10FA10DBB2EE040AC8EE000A10EEF8
:1008C000905A284614F01DF841EC190B53EC192BE3
:1008D000D0A014F025FD5AE1D4A014F021FD56E17A
:1008E00004A951F82400D7A113F0E7FE20BB9FED27
:1008F000D70AB4EEC08AF1EE10FA19D89FEDD40AE7
:10090000B4EEC08AF1EE10FA12DBB2EE040A00E097
:1009100041E1C8EE000A10EE905A284613F0F1FFAC
:1009200041EC190B53EC192BCAA014F0F9FC2EE181
:10093000CEA014F0F5FC2AE104A951F82400D1A1BD
:1009400013F0BBFE10BB9FEDD10AB4EEC08AF1EEEE
:1009500010FA17D89FEDCE0AB4EEC08AF1EE10FA65
:1009600010DBB2EE040AC8EE000A10EE905A2846D8
:1009700013F0C7FF41EC190B53EC192BC5A014F071
:10098000CFFC04E1C8A014F0CBFC00E104A951F8AD
:100990002400CAA113F091FEF8B904A9601C51F813
:1009A000200040786E2808D1C6A014F0B9FC0121BF
:1009B000C74807F023FA641CE9E004A9601C51F859
:1009C00020004078662886D1C2A014F0A9FC01213D
:1009D000BF4807F015FA641CD9E004A951F82400B7
:1009E000BFA113F06AFE98B9601CB0420ADA641C19
:1009F00005E004A951F82400FFF749FE641CB44245
:100A0000F7DB01E0FFF742FE25B0BDEC048BF0BD43
:100A100004A951F82400B4A113F04FFEF8B904A9B9
:100A2000601C51F8200040786E2808D1B0A014F066
:100A300077FC0221A64807F0E1F9641CA7E004A9AD
:100A4000601C51F82000407866289AD1ABA014F0C1
:100A500067FC02219E4807F0D3F9641C97E004A9C3
:100A600051F82400A8A113F028FEE8BB1FED9F0A4F
:100A7000B4EEC08AF1EE10FA0ED8B5EEC08AF1EEEF
:100A800010FA09DDB3EE040A28EE000ABDEEC00A32
:100A900010EE100A04F045FFBDEEC80A10EE100A71
:100AA00001B29C48A0F86C10B5EEC08AF1EE10FAC5
:100AB00004DD0121880708F0DFFA04E000214FF08F
:100AC000804008F0D9FAB2EE040AC8EE000A10EE2F
:100AD000905A284613F015FF41EC190B53EC192BD3
:100AE0008DA014F01DFC52E0FFE704A850F824008C
:100AF0000078412805D004A850F8240000782A285E
:100B00002AD100250AE00F2D00DB13E004A850F8DD
:100B10002400405D0DF80500681CC5B204A850F81B
:100B20002400405D0A2805D004A850F82400405D48
:100B30000D28E8D100BF0D200DF805000A21681C22
:100B40000DF800100D21A81C0DF80010EA1C6946D4
:100B5000052004F0CDF81AE004A951F8240073A18F
:100B600013F0ABFD98B104A951F8240071A113F062
:100B7000A4FD60B104A951F8240070A113F09DFDFB
:100B800028B104A850F824106EA014F0C9FB641C0E
:100B9000B442FFF649AE00BF36E770B52DED048BC9
:100BA000A4B0002670480078012817D100240EE078
:100BB0006D49601C085C15A9085515A8005D0D2835
:100BC00003D015A8005D0A2800D102E0641C322C75
:100BD000EEDB00BF0020644908700126012E0FD112
:100BE000282C0EDD1423202201A915A804F0FCFFF7
:100BF0000546019800785D4908700299481CB7E0E5
:100C000013E10EE12086002054656D703100000074
:100C100000004843CEFCCAD5CAD2BFD8CEC2C9E86C
:100C2000D6C325302E3166A1E60A0000CEFCCAD517
:100C3000CAD2BFD8CEC2C9E8D6C3B3ACCFDEA3A157
:100C40000A00000054656D7032000000000061442D
:100C50000000FA43B7B4D3A6CAD2BFD8CEC2C9E8FF
:100C6000D6C325302E3166A1E60A0000B7B4D3A65C
:100C7000CAD2BFD8CEC2C9E8D6C3B3ACCFDEA3A117
:100C80000A00000054656D703300000000009643B8
:100C9000000016434C4544BFD8CEC2C9E8D6C32590
:100CA000302E3166A1E60A004C4544BFD8CEC2C9F9
:100CB000E8D6C3B3ACCFDEA3A10A000052656C61D5
:100CC00079310000B5E7B4C5B7A731BFAA210A0042
:100CD00000080240B5E7B4C5B7A731B9D8210A006A
:100CE00068656C700000000052656C61793200002C
:100CF000B5E7B4C5B7A732BFAA210A00B5E7B4C5A6
:100D0000B7A732B9D8210A004D6F74657273706548
:100D100065640000487100204D6F746572737065E2
:100D200065643D25302E31660A0000007A65726FD9
:100D30000000000073656E730000000073746F7034
:100D40000000000063616E206E6F742066696E643F
:100D50002074686520257320696E737472756374DE
:100D6000696F6E210A0000007C8A00206831002033
:100D700014F0FEFAB0EE408AF0EE608A51EC180BE7
:100D800013F0D2FD934948600399481C14F0F0FA1F
:100D9000B0EE408AF0EE608A51EC180B13F0C4FDFF
:100DA0008C4988600499481C14F0E2FAB0EE408A3D
:100DB000F0EE608A51EC180B13F0B6FD8549C8605F
:100DC0000599481C14F0D4FAB0EE409AF0EE609AFF
:100DD00051EC190B13F0A8FD08EE100AB0EE480A0A
:100DE0007D4800F027FA7B4880ED040A0699481CEC
:100DF00014F0BEFAB0EE408AF0EE608A51EC180BA7
:100E000013F092FD73494861681E01AA52F8201040
:100E10007048183013F05FFC01206E4981F8200003
:100E200003E015A96DA014F07BFA24B0BDEC048B8F
:100E300070BD8DB000216A4A1278012A0DD10020C0
:100E400005E0674B421C9A5C0DF80020401C3228DC
:100E5000F7DB0022624B1A70012101291CD19DF899
:100E60000120062A02D15F4B5A8015E09DF801202F
:100E7000032A0BD19DF80220022A03D19DF80420F9
:100E8000584B1A800322574B5A8005E09DF80120E9
:100E9000102A01D1534B5A800DB070472DED068BAF
:100EA00086B004F09DF850A103C9CDE9040100F01B
:100EB0001BFA03F0ABFE4FF44873012200210846F1
:100EC0000BF068FD4AA014F02BFA81E0FFF765FEF5
:100ED000FFF7AFFFFFF7DCFBFFF786FA4B48006830
:100EE000401C4A49086008460068322190FBF1F234
:100EF00001FB120008B900F076FC4448006850215C
:100F000090FBF1F201FB120020B9042204A9052094
:100F100003F0EEFE3D480068C82190FBF1F201FBB2
:100F2000120000284ED13A48C08F50B937480068A7
:100F3000490090FBF1F201FB120020B903F0C8FB5D
:100F400001E003F0C5FB3248B0F9340000EE100AAE
:100F5000B8EEC00ADFED2F0A80EE201A11EE104A1B
:100F6000204613F0CEFC41EC180B2948B0F93200B2
:100F700000EE100AB8EEC00ADFED260A80EE201A55
:100F800011EE104A204613F0BCFC41EC190B20482E
:100F9000B0F92E0000EE100AB8EEC00ADFED1D0A0F
:100FA00080EE201A11EE104A204613F0AAFC41EC04
:100FB0001A0B8DED028B8DED009B53EC1A2B16A0B6
:100FC00014F0AEF905230022114610460BF0E2FCA6
:100FD0007CE70000683100209C38002025730A005F
:100FE0002086002068090020410D0A0D0000000045
:100FF0004D4F44454C5F313030362056312E302035
:10100000323032312E312E31350A00000C020020F0
:10101000FC72002000007A444149523D25302E33B5
:10102000662CB1EA3D25302E33662CB9A43D25301F
:101030002E33660A0000000070B502460C46FF25FC
:10104000FF2309E012F8010B80EA05011B48405C10
:1010500080EA03051A48435C2000A4F10104F1D1A1
:1010600043EA052070BD70B504460D46294620466A
:10107000FFF7E2FF0646C6F307206055681C2654BA
:1010800070BD70B505460E4631462846FFF7D4FFC1
:101090000446E21704EB12621212AB5D9A420BD1C6
:1010A000E21704EB12621212A4EB0223721CAA5C78
:1010B000934201D1012070BD0020FCE71002002006
:1010C0001003002003F05AFB09F08DFB1423064A9D
:1010D000002106480BF0E2F800200BF0E1FC09F0DB
:1010E00073FC00BFFEE70000C83700202F02000895
:1010F0009FED900A80ED000A9FED8E0A80ED020AB6
:101100009FED8C0A80ED010A0121C160704710B586
:101110000B4600240460826042609FED860A80EDE9
:10112000030A9FED840A80ED040AC361002107E0F1
:101130009FED800AC46904EB810484ED000A491C18
:1011400044688C42F4DC10BD30B50B4600240460CA
:1011500082604260C46004618361002104E0002475
:10116000856945F82140491C44688C42F7DC30BD54
:10117000F0EE401AC168002905DDC168491EC16052
:10118000C0ED001A17E090ED000A80ED010A90ED25
:10119000010A31EEC00AB0EE082AC0EE022AC0ED04
:1011A000022A90ED000A90ED022A32EE202A02EE89
:1011B000010A80ED000A90ED000A704710B5024662
:1011C0009068002816DD9068401E90601368906952
:1011D00040F82310D0680844D0601068401C1060AC
:1011E000106800EBD073D46804EB630393FBF0F357
:1011F00013611DE01068401C1060D2E900039842A2
:1012000001DB002010601368906950F82300D36858
:101210000B44181AD060506800EBD073D46804EB0C
:10122000630393FBF0F313611368906940F8231094
:10123000106910BDF0EE400A8168002920DD816848
:10124000491E81600268C16901EB8201C1ED000A9B
:1012500090ED030A30EE200A80ED030A0168491C74
:1012600001609FED340A80ED050A90ED031A90EDC0
:10127000000AB8EEC00AC1EE001AC0ED041A26E05A
:101280000168491C0160D0E90012914201DB002194
:1012900001600268C16901EB820191ED000A90EDE5
:1012A000031A31EE201A31EE400A80ED030A90ED68
:1012B000031A90ED010AB8EEC00AC1EE001AC0EDA3
:1012C000041A0268C16901EB8201C1ED000A90EDC8
:1012D000040A704700B50346B0EE402AB0EE420A59
:1012E0001846FFF7A7FF00BD00B5052212491348B5
:1012F000FFF70DFF052212491248FFF708FF0522EC
:1013000011491248FFF703FF052211491148FFF761
:10131000FEFE642210491148FFF7F9FE4FF4966271
:101320000F491048FFF7F3FE64220F490F48FFF7FB
:10133000EEFE00BD000000004C380020CC3700203D
:1013400060380020EC370020743800200C38002072
:10135000883800202C380020BC3800209C38002021
:101360008C3A00204C3A00204C4D00206C3A002072
:1013700010B581B24FF6FF7303EA1042FE4C2170A4
:101380000B0A6370A270130AE3702346D3ED000AC0
:10139000B0EE600A10BD70B502460C46FF25FF2373
:1013A00009E012F8010B80EA0501F448405C80EA8C
:1013B0000305F348435C2000A4F10106B4B2F0D168
:1013C00043EA052070BD014648780A7840EA0220C9
:1013D000704770B5A0B005460C46224629466846BF
:1013E00013F052F921462846FFF7D5FF0646321280
:1013F0002046611CCCB20DF80020F2B22046611CE0
:10140000CCB20DF8002022466946012003F070FCA2
:1014100020B070BD38B50446DA4800788DF8000079
:10142000D848407840F080008DF801008DF80240E7
:1014300003216846FFF7CDFF38BD1CB5002405E049
:10144000D048005D0DF80400601CC4B2062CF7DB28
:1014500006216846FFF7BDFF1CBD0246A2F202301E
:101460000B2841D2DFE800F0060A0E40404012246B
:101470002E383C000BB2C448C38337E00BB2C248DD
:10148000438333E00BB2C04803832FE0012907D127
:10149000BD48B0F9220040F00803BB48438406E091
:1014A000B948B0F9220040F01003B74843841DE06A
:1014B000012906D1B448B0F9260040F00103B24832
:1014C000C38413E0012906D1AF48B0F9220040F0EF
:1014D0000103AD48438409E008B2AB4B588205E0F4
:1014E0000BB2A948838201E00020704700BF0120B1
:1014F000FBE72DE9F0410020A24981F821000846D0
:10150000807F0B2803DA032081F8210026E09D4824
:10151000801CFFF758FF06469A48001DFFF753FF4F
:10152000054698488779002414E06100C91D954A52
:101530008818FFF748FF8046311988B24146FFF707
:101540008CFF012804D002208E4981F8210003E09D
:10155000601CC4B2AC42E8DB00BF00BF894890F811
:10156000210010B9FFF769FF04E0864991F82100D6
:10157000FFF750FFBDE8F08170B50020814981F888
:1015800021000846807F082803D0032081F821002D
:1015900014E07C48801CFFF716FF05467948001DC3
:1015A000FFF711FF044621462846FFF756FF0128A2
:1015B00003D00220734981F8210000BF714890F8E0
:1015C000210010B9FFF739FF04E06E4991F82100BE
:1015D000FFF720FF70BD10B503460A46A3F20130A5
:1015E0000A283AD2DFE800F005090D1115191D216E
:1015F00029316548808D81B231E06348808B81B2AA
:101600002DE06148C08D81B229E05F48408E81B2F3
:1016100025E05D48408F81B221E05B48808F81B238
:101620001DE05948C08F81B219E057480088022850
:1016300001D1012100E0002111E05348408D022832
:1016400001D1012100E0002109E04F48008D02286E
:1016500001D1012100E0002101E0002010BD00BF08
:101660000812107051700120F8E770B590B000209A
:10167000444981F821000846807F082803D00320D0
:1016800081F8210027E03F48801CFFF79CFE0646BA
:101690003C48001DFFF797FE0546202D04D9032086
:1016A000384981F8210016E0002410E06846022243
:1016B00002FB04013046FFF78EFF20B902203149BA
:1016C00081F8210005E0701C86B2601C84B2AC4237
:1016D000ECDB00BF00BF2B4890F8210000285DD153
:1016E000284981F8A2000846017890F8A22090F8D5
:1016F000A200401C234B83F8A20003F12200815476
:101700002238417890F8A22090F8A200401C83F87B
:10171000A20003F1220081546806010E184690F8D9
:10172000A22090F8A200401C83F8A20003F122003E
:10173000815400241EE01DF81410124890F8A220D5
:1017400090F8A200401C0F4B83F8A20003F1220086
:1017500081546000401C1DF80010184690F8A2202B
:1017600090F8A200401C83F8A20003F122008154EB
:10177000601C84B2AC4209E030060020525D0108D2
:10178000525E0108DC4E0020FC720020D3DB37489B
:1017900090F8A2102230FFF71CFE04E0334991F8C4
:1017A0002100FFF737FE10B070BD10B52F4840780C
:1017B000032804D0062805D0102809D105E0FFF73A
:1017C00054FF0EE0FFF7D8FE0BE0FFF792FE08E0B3
:1017D0000120264981F8210091F82100FFF71AFE27
:1017E00000BF00BF10BD70B52148007800B970BDC2
:1017F00000201F4908701D48807F042800DA0EE091
:101800001A48817FFFF7C7FD044604B107E0174877
:101810000578012D00D002E0FFF7C7FF00BF0020D0
:101820001249887700BFE2E701201149087070472C
:1018300070B5044600200E49087040F22F150D4A7D
:101840002946022004F0D7F80848807F1E2807DACE
:101850000648817F807F401C044A9077104644549C
:1018600070BD00BFFFF7BFFFFCE70000DC4E0020AB
:1018700034060020291800082DED028B86B00024C4
:101880000BF070FB0BF0AFFC1021DA4806F0B8FA51
:10189000D948DA4BDA4A01210090DA4810F056FCB8
:1018A00064230022114610460BF074F80BF0BFFCC5
:1018B00010B9D5A013F034FDDC4900200DF0B3FBC6
:1018C000DB490870084600780D2822D1D9A013F012
:1018D00027FD0022012110460EF015FCD4490870A6
:1018E0000846007878B9DDA013F01AFD0021012028
:1018F0000DF099FBCE490870CC4901200DF093FB07
:10190000CB49087011E0CA480178D9A013F008FD4E
:101910000BE0C748007828B1C5480178DCA013F077
:10192000FFFC02E0EAA013F0FBFCF04902200DF0FE
:101930007AFBBF4908700846007828B1084601784C
:10194000EBA013F0EDFC02E0F9A013F0E9FCB748BE
:10195000FD4908600122FDA1FB480DF07CFBB44964
:1019600008700846007880B9FC4B4FF4A272FC491D
:10197000F5480DF040FCAE4908700846007808B9FB
:1019800001F0FEFAF0480DF07DFE642301220021F3
:1019900008460AF0FFFFFCE36423002211461046CC
:1019A0000AF0F8FF9649974810F005FE601C84B2D3
:1019B0000A2094FBF0F100FB1140002863D1E848B5
:1019C000D0F81801E649B1F92C100844E449C1F8EF
:1019D00018010846D0F81C11B0F91C000144E04879
:1019E000C0F81C11D0F82011B0F92E000144DC48D9
:1019F000C0F82011D0F82411B0F930000144D848C3
:101A0000C0F82411D0F82811B0F932000144D448AC
:101A1000C0F82811D0F82C11B0F934000144D04896
:101A2000C0F82C1190F8401190F836000844C1B26B
:101A3000CB4880F8401190F8411190F838000844E4
:101A4000C1B2C74880F84111D0F83011B0F93A005E
:101A50000144C348C0F83011D0F83411B0F93C004B
:101A60000144BF48C0F83411D0F83811B0F93E0035
:101A70000144BB48C0F83811D0F83C0100F57A7039
:101A8000B749C1F83C01B4F5967F78DB0024B4482F
:101A900090F8DC000A2190FBF1F03030B149087178
:101AA000AF4890F8DC000A2190FBF1F201FB120034
:101AB0003030AC494871AA4890F8DD000A2190FB0B
:101AC000F1F03030A7498871A54890F8DD000A216F
:101AD00090FBF1F201FB12003030A249C8710222E2
:101AE00099480DF0B8FA5249087008460078002865
:101AF0007ED19548C1680DF0A9FE4D4908709848FF
:101B000090F8E200964991F8E110954A92F8E020A9
:101B1000934B93F8DE30CDE90032CDE902109048C6
:101B200090F8DD3090F8DC208FA187480EF05CFE45
:101B30008B4890ED460AB8EEC00ADFED910A80EEC0
:101B4000201A11EE105A284612F0DBFE41EC180B59
:101B500053EC182B8BA104A813F0F2FB04AA8BA161
:101B600079480EF041FE401C50B977480DF08AFDCF
:101B7000002108460DF057FA2D490870F1E37CE288
:101B8000774890ED470AB8EEC00ADFED7D0A80EE97
:101B9000201A11EE105A284612F0B3FE41EC180B31
:101BA00053EC182B77A104A813F0CAFB04AA77A161
:101BB00065480EF019FE6A4890ED480AB8EEC00A72
:101BC000DFED730A80EE201A11EE105A284612F04B
:101BD00098FE41EC180B53EC182B6EA104A813F0DF
:101BE000AFFB04AA69A158480EF0FEFD5C48D5E0A1
:101BF000F3E1000000080240AC0A00206C0A00205B
:101C00009CC70020F0C100205344BFA8B3F5CABC54
:101C1000BBAFB3C9B9A6A3ACBCB4BDABB9D2D4D821
:101C20005344BFA8A1A30D0A000000009C5F002040
:101C3000380600205344BFA8C3BBD3D0CEC4BCFEDB
:101C4000CFB5CDB3A3ACBCB4BDABBDF8D0D0B8F16B
:101C5000CABDBBAF2E2E2E0D0A0000005344BFA8F4
:101C6000B3C9B9A6B8F1CABDBBAFA3A10D0A0000A4
:101C7000CEC4BCFEB8F1CABDBBAFCAA7B0DCA3A13D
:101C8000B4EDCEF3B4FAC2EBA3BA25640D0A00009A
:101C90005344BFA8B9D2D4D8CEC4BCFECFB5CDB3BF
:101CA000CAA7B0DCA3A1BFC9C4DCCAC7D2F2CEAAFE
:101CB000CEC4BCFEB3F5CABCBBAFCAA7B0DCA3A1FF
:101CC000B4EDCEF3B4FAC2EBA3BA25640D0A00005A
:101CD0005344BFA8CEC4BCFECFB5CDB3B9D2D4D87F
:101CE000B3C9B9A6A3A10D0A000000000C6400202E
:101CF00055C5CCB9D2D4D8CEC4BCFECFB5CDB3CAAD
:101D0000A7B0DCA3A1BFC9C4DCCAC7D2F2CEAACE99
:101D1000C4BCFEB3F5CABCBBAFCAA7B0DCA3A1B4B8
:101D2000EDCEF3B4FAC2EBA3BA25640D0A000000AD
:101D300055C5CCCEC4BCFECFB5CDB3B9D2D4D8B383
:101D4000C9B9A6A3A10D0A0044660020303A636F0A
:101D50006E6669672E747874000000003C060020EF
:101D6000FC720020E5060020323025642F25642F08
:101D700025642025643A25643A25642C000000007F
:101D80000060EA4625302E326600000025732C00E4
:101D900000803B4525302E336600000090ED490A57
:101DA000B8EEC00A5FED060A80EE201A11EE105A56
:101DB000284612F0A6FD41EC180B53EC182BAFF29D
:101DC0002C0104A813F0BCFA04AAAFF24001FE48AB
:101DD0000EF00AFDFD4890ED4A0AB8EEC00ADFEDAC
:101DE000FC0A80EE201A11EE105A284612F089FDE6
:101DF00041EC180B53EC182BAFF2680104A813F058
:101E00009FFA04AAAFF27C01EF480EF0EDFCEF4818
:101E100090ED4B0AB8EEC00ADFEDED0A80EE201A15
:101E200011EE105A284612F06CFD41EC180B53ECE1
:101E3000182BAFF2A00104A813F082FA04AAAFF2A3
:101E4000B401E1480EF0D0FCE04890F8400100EE0B
:101E5000100AB8EE400AF3EE0E0A80EE201A11EED8
:101E6000105A284612F04DFD41EC180B53EC182B7C
:101E7000AFF2E00104A813F063FA04AAAFF2F40190
:101E8000D1480EF0B1FCD14890F8410100EE100AA3
:101E9000B8EE400AF3EE0E0A80EE201A11EE105A48
:101EA000284612F02EFD41EC180B53EC182BC9A15B
:101EB00004A813F045FA04AAAFF23011C2480EF09C
:101EC00093FCC248808C30B9C4A2AFF24011BE4826
:101ED0000EF08AFC10E0BD48808C012806D1C1A21A
:101EE000AFF25811B8480EF07FFC05E0BFA2AFF288
:101EF0006411B5480EF078FCB44890ED4C0AB8EE89
:101F0000C00A5FED5D0A80EE201A11EE105A2846D5
:101F100012F0F7FC41EC180B53EC182BADA104A800
:101F200013F00EFA04AAAFF29C11A7480EF05CFC65
:101F3000A64890ED4D0AB8EEC00A5FED6B0A80EE40
:101F4000201A11EE105A284612F0DBFC41EC180B57
:101F500053EC182B9FA104A813F0F2F904AAAFF2D6
:101F6000D41199480EF040FC984890ED4E0AB8EE16
:101F7000C00A5FED790A80EE201A11EE105A284649
:101F800012F0BFFC41EC180B53EC182B91A104A8E4
:101F900013F0D6F904AAAFF20C218B480EF024FC02
:101FA0008A4890ED4F0AB8EEC00A5FED8B0A80EECA
:101FB000201A11EE105A284612F0A3FC41EC180B1F
:101FC00053EC182BAFF2342104A813F0B9F904AA8A
:101FD00088A17D480EF008FC30E08848007804288D
:101FE00015D179480DF04EFB0A22854976480DF04F
:101FF00032F88249087008460078F8B9814B9D2272
:10200000814971480DF0DDF97C49087016E06E4891
:102010000DF038FB002108460DF005F877490870EF
:102020000BF005F964230022114610460AF0B2FCB9
:10203000764900200CF0F7FF7049087062480DF0F7
:1020400021FB00206149C1F8180100215F48C0F858
:102050001C11C0F82011C0F82411C0F82811C0F8D4
:102060002C1180F8401180F84111C0F83011C0F8EF
:102070003411C0F83811C0F83C11544890F80001F0
:10208000002867D00222AFF23C314F480CF0E3FF4A
:102090005A49087008460078D0B95A4B4FF4A272DA
:1020A0004A4949480DF08DF95449087000204749C4
:1020B00081F800015148007818B955A013F030F9A3
:1020C00002E059A013F02CF93F480DF0DBFA41E093
:1020D0004A480078042828D10A22AFF290313A48C1
:1020E0000CF0B9FF45490870464B4FF4A2723749CE
:1020F00035480DF066F9414908700020334981F8F0
:1021000000013E48007818B941A013F009F908E031
:10211000002108460CF087FF3849087042A013F0F0
:10212000FFF829480DF0AEFA14E004F005FA002299
:10213000012110460DF0E7FF3049087000210846E4
:102140000CF071FF2D490870304900200CF06BFF36
:102150002A4908701D48B0F8EA00002870D01B48D2
:10216000B0F9E4000A2190FBF1F090FBF1F201FBE1
:1021700012003030224908711448B0F9E4000A21F5
:1021800090FBF1F201FB120030301D4948710F48FD
:1021900000E0E6E0B0F9E6000A2190FBF1F0303013
:1021A000174988710948B0F9E6000A2190FBF1F25D
:1021B00001FB120030301249C8710448B0F8EA003F
:1021C00000287DD001483CE044660020FC720020DD
:1021D0000000964325302E3166000000CDA3D6B90D
:1021E00000000000CEFCD2BA00000000C5C5D2BA83
:1021F0000000000025732C0A0000000038060020B3
:10220000E50600203C060020480600209C5F0020D8
:10221000C5E4D6C3B2CECAFDB1A3B4E6B3C9B9A66C
:10222000A3A10D0A00000000C5E4D6C3B2CECAFDCA
:10223000B1A3B4E6CAA7B0DCA3A10D0A0000000058
:102240008EE0B0F8EC000028BBD000250BE0FE4982
:10225000FE4810F0B0F901230022114610460AF0A2
:1022600099FB681CC5B2642DF1DB0122F849F948DD
:102270000CF0F1FEF849087008460078002862D199
:10228000F6A013F04DF83220F14908700A22F84800
:102290000CF0E1FEF049087008460078F0BB3BE026
:1022A000F44B4FF48062F449EA480CF0A4FFEA4989
:1022B00008700846007810B9EE48006808B931E0A7
:1022C00044E0EE4BEB48EC490268E9480DF079F840
:1022D000E14908700846007828B9E8480068E549EF
:1022E0000968884200D21DE0DA48806864214843CA
:1022F000D849C968B0FBF1F001B2E148A0F8EE108E
:10230000B0F8EE0081B2B52000F0C3FD0123002239
:10231000114610460AF03EFBCF4800E003E000788B
:102320000028BDD00BE0002102200CF07CFECA4941
:102330000870D44902200CF076FEC749087030209E
:10234000C349087002E0D0A012F0EAFF0021CC4897
:10235000A0F8EA10BF480DF095F9C5480DF092F9C4
:1023600000BFFFF719BB2DE9F05F06460D46934607
:102370000024A81B642802D22846BDE8F09F7019EB
:102380004108B4480DF062FA9BF804A00123002232
:10239000114610460AF0FEFAAE4A7821B6480EF011
:1023A000CAF9AC4A7821B4480EF0C5F90624B248FF
:1023B000005D2F2801D0601C84B2601C80B20446EE
:1023C000AD49085C3038C7B2601C085C202809D0D1
:1023D000601C80B20446085C303807EB870100EBD4
:1023E0004100C7B2BA450DDD9A488068B04206D0B8
:1023F00098495A4688682946FFF7B5FF57E095483F
:102400008068BAE7BA450DDA92488068A84206D0DB
:1024100090485A4681683046FFF7A5FF47E08D484F
:102420008068AAE7A01C84B29348005D303800F0B1
:10243000FF089149601C085C3A280AD0601C80B2F1
:102440000446085C303808EB880100EB410000F0DE
:10245000FF08A01C84B28848005D303800F0FF09F6
:102460008549601C085C2C280AD0601C80B2044698
:10247000085C303809EB890100EB410000F0FF09EE
:10248000B8F1000F02DCB9F1050F0DDD714880686D
:10249000A84206D06F485A4681683046FFF763FF6E
:1024A00005E06C48806868E76A48806865E76948C5
:1024B000806862E72DE9F0472DED048B0546002684
:1024C0000027B5F900000A2190FBF1F090FBF1F232
:1024D00001FB120030305E490871B5F900000A2195
:1024E00090FBF1F201FB1200303059494871B5F907
:1024F00002000A2190FBF1F0303055498871B5F99E
:1025000002000A2190FBF1F201FB12003030504929
:10251000C87195F804A006226049002002F0E8FB8B
:1025200001224B494B480CF096FD4B490870084678
:10253000007800287ED1474AC8214F480EF0FBF8AA
:1025400060B944480DF09EF8002108460CF06BFD80
:1025500041490870BDEC048BBDE8F0873D4AD16865
:1025600090682A46FFF7FFFEADE006244248005D72
:102570002F2800D0641C4048005D2F2800D0A2E026
:10258000601C04463C49085C303800F0FF08601CC1
:10259000085C202809D0601C0446085C303808EB31
:1025A000880100EB410000F0FF08D04503D0294826
:1025B0000DF068F8CEE77F1C032097FBF0F100FBDD
:1025C0001170002878D100E0641C2B48005D2C2895
:1025D000FAD1601C00F0FF0900E0641C2648005D91
:1025E0002C28FAD100202449085501EB090012F0EB
:1025F000BFFEB0EE409AF0EE609A9FED290B53ECCF
:10260000102B51EC190B12F07CF841EC180B12F066
:1026100059F9064606F5FA76002E00DA002600EE95
:10262000106AB8EEC00ADFED200A20EE200ABDEEE7
:10263000C00A00E053E010EE106A300A1B494871EE
:102640008E710722002034E09CC70020F0C10020DA
:10265000E50600204466002038060020CEC4BCFEFB
:10266000B4F2BFAAB3C9B9A6A3A10D0A0000000025
:10267000946A002040060020BC6C00204406002024
:10268000FC7200200C640020CAFDBEDDD0B4C8EB93
:10269000CAA7B0DCA3A10D0A000000002807002093
:1026A00000000000000059400AD7A33D2007002089
:1026B00002E002F01DFB0026012300221146104615
:1026C0000AF068F900BF8C4A78218C480EF033F884
:1026D00000287FF44AAF88480CF0D4FF3AE78648D8
:1026E0000CF0D0FF002108460CF09DFC84490870D6
:1026F0000AF09DFD64230022114610460AF04AF9B3
:10270000804900200CF08FFC7D4908707A480CF05D
:10271000B9FF00BF1EE710B57B4890F85D0140B9D6
:10272000794890F85E0120B9774890F85C0100285C
:102730007ED00024012275A177480CF08CFC7049F2
:10274000087008460078002873D16F4890F85C0143
:10275000F0B16948D0F85C146F480DF077F868491B
:1027600008706548D0F858146748C0F88411D0F84C
:102770008401FA2807DD6448D0F88401FA386249F8
:10278000C1F8800138E000205F49C1F8800133E0E2
:102790005D4890F85E01A8B15B48D0F88011C0F8A0
:1027A0008411D0F88001FA2807DD5748D0F880015D
:1027B000FA385549C1F880011EE000205249C1F89D
:1027C000800119E05048D0F884014F49C1F88001D8
:1027D0000846D0F88401FA30C1F884010846D0F8E0
:1027E00084114548D0F85C04814205D94248D0F8AC
:1027F0005C144548C0F884114348D0F8801146481D
:102800000DF024F83E4908703F48D0F8800170B1BF
:102810003D4890F85D0150B93F4A32213F480DF0E4
:102820008AFF3548D0F858043749C1F8800101E0E3
:1028300061E052E0002448E03348D0F88401324996
:10284000D1F88011884231D02B48D0F858142E4846
:10285000D0F8840181421AD22F4A32212F480DF03C
:102860006AFF48B14FF4407202EB441188B22E2245
:102870002A4900F031FB27E04FF4407202EB44118B
:1028800088B22E222549323100F026FB1CE00AE0F6
:102890004FF4407202EB441188B22E221F493231AC
:1028A00000F01AFB641C052CF2DB0DE00AE04FF48B
:1028B000407202EB441188B22E221849323100F0E6
:1028C0000BFB641C052CF2DB641C052CB4DB0A48F2
:1028D000D0F858140C48C0F884110F480CF0D2FE00
:1028E0000021094880F85D1180F85E11002006493A
:1028F00081F85C0100BF10BD44660020BC6C002064
:10290000380600209C5F002048710020303A6C6F30
:10291000672E747874000000946A0020BC70002058
:10292000EC484BE0428B038B9A4246D0438B5A1CB7
:102930004283C268D15C428B438A9A4201DB002207
:102940004283E54A127822B1012A0DD0022A32D1FF
:102950001CE0FF2907D10122DF4B1A70DF4B1A6000
:10296000DF4A1B68D15427E003290BD10222DA4B3E
:102970001A70DA4A1268521CD84B1A60D84A1B687F
:10298000D15402E00022D44B1A7015E0D34A1268E9
:10299000521CD24B1A601A4612680B2A06D3012227
:1029A000CF4B1A700022CC4B1A7003E0CC4ACB4BB1
:1029B0001B68D15400E000BF00E003E0C84A127871
:1029C000002AAFD000BF7047C64878E0428B038B27
:1029D0009A4273D0438B5A1C4283C268D15C428BAB
:1029E000438A9A4201DB00224283BF4A127822B115
:1029F000012A0DD0022A5FD121E0012907D101224D
:102A0000B94B1A70B94B1A60B94A1B68D15454E0DB
:102A1000B64A1268521CB54B1A60032903D0062926
:102A200001D0102907D10222AF4B1A70B04AAF4B28
:102A30001B68D15402E00022AB4B1A703DE0AB4A58
:102A40001268521CA94B1A60A94A1B68D154A74AA4
:102A50001268082A2ED3A64A9278062A06D10122A5
:102A6000A34B1A700022A04B1A7023E0A04A927860
:102A7000032A0DD19E4AD278121D9C4B1B689A42A4
:102A800018D801229A4B1A700022974B1A7011E045
:102A9000974A9278102A06D10122954B1A7000228B
:102AA000914B1A7006E0914A1268322A02D3002232
:102AB0008D4B1A7001E001E000BF00E003E08C4A9A
:102AC0001278002A82D000BF70478A4847E0428BC4
:102AD000038B9A4242D0438B5A1C4283C268D15C1A
:102AE000428B438A9A4201DB00224283824A127857
:102AF00022B1012A0ED0022A2ED10CE0412908D1A0
:102B000002227D4B1A7001227C4B1A607C4A1B68A2
:102B1000D15422E021E0794A1268521C774B1A60A6
:102B20001A461268322A03D30022734B1A7012E03D
:102B30000A2901D00D290AD1714A704B1B68D15462
:102B400001226F4B1A7000226B4B1A7003E06C4A23
:102B50006A4B1B68D15400E000BF00E003E0684A04
:102B60001278002AB3D000BF704766486DE0428BF0
:102B7000038B9A4268D0438B5A1C4283C268D15C53
:102B8000428B438A9A4201DB002242835E4A1278DA
:102B900032B1012A0ED0042A29D0052A52D133E0BD
:102BA0005A2906D10122584B1A70584B1A60584ABC
:102BB000517048E0554A1268521C544B1A60A529BE
:102BC00007D10422504B1A70514A504B1B68D15404
:102BD0000CE0102907D103224B4B1A704C4A4B4B87
:102BE0001B68D15402E00022474B1A702BE0474A81
:102BF0001268521C454B1A600522434B1A70444A16
:102C0000424B1B68D1541EE0404A1268521C3F4B95
:102C10001A601A461268C82A03D300223A4B1A7067
:102C20000FE03B4A394B1B68D154D278D21C374B4A
:102C30001B689A4205D80122354B1A700022324B8C
:102C40001A7000E000BF00E003E0314A1278002A69
:102C50008DD000BF704710B52E4C12E0608B218BD9
:102C600088420DD0628B511C6183E168885CFEF75D
:102C7000DFFD608B618A884203DB0020608300E017
:102C800003E0254800780028E8D000BF10BD0123EC
:102C90001A460021084609F07DFE002009F079F867
:102CA0001E49086002F03EFE13E0FFF7D4FFFFF775
:102CB0005CFFFFF70AFFFFF787FEFFF731FE0523F2
:102CC00000221146104609F065FE641CC82C00DD88
:102CD0000024EAE7C47D0020480700204C070020BC
:102CE000EC810020F88100204007002044070020EC
:102CF0002086002054860020500700205407002022
:102D00007C8A002040740020380700203C07002007
:102D100068780020347900205C7D00203007002096
:102D200010B503469FEDFA0AFA4880ED2D0A91EDA1
:102D3000000A80ED320A012034E001EB800494EDBA
:102D4000000A441E01EB8404D4ED000A30EE600A50
:102D500003EB8004D4ED000A441E03EB840494EDDD
:102D6000001A70EEC10A80EE201AEA4CB43404EB6B
:102D7000800484ED001A01EB800494ED000AE54C18
:102D8000B43404EB8004D4ED000A03EB800494ED2A
:102D9000001A00EEC10ADF4CC83404EB800484ED55
:102DA000000A401C9042C8DB10BDF0EE400AD94832
:102DB00090F8B000002802DCB7EE000A68E0D548C1
:102DC00090ED221AB4EEE01AF1EE10FA08DD90ED63
:102DD000321AD0ED2D1AB0EE410A01EEA00A57E0EA
:102DE000CC4890F8B000401ECA49883101EB800001
:102DF00090ED001AB4EEE01AF1EE10FA16D2C548C2
:102E000090F8B000401E403101EB800090ED001AB8
:102E1000C04890F8B000401E143901EB8000D0ED9E
:102E2000001AB0EE410A01EEA00A31E0002028E0CD
:102E3000B849883101EB800191ED001AB4EEE01A37
:102E4000F1EE10FA1CD8B3498831421C01EB820123
:102E500091ED001AB4EEE01AF1EE10FA10DBAD4974
:102E6000C83101EB820191ED001AAA49B43101EB9E
:102E70008201D1ED001AB0EE410A01EEA00A06E08F
:102E8000401CA44991F8B010491E8142D0DC00BF1B
:102E90007047FEB504460D465A208DF80000A52067
:102EA0008DF8010005208DF8020082208DF80300C6
:102EB00020128DF80400E0B28DF8050028128DF87C
:102EC0000600E8B28DF80700002600BF0822694618
:102ED000002001F00DFFFEBD2DE9F04707468946B1
:102EE000154605F1070A504612F0F8FE0446002682
:102EF0005A202070A5206070E81CA0708220E0702D
:102F000038122071677100BF05E019F80610B01D76
:102F10002154701C86B2AE42F7DB4FF0000800BFB0
:102F2000A078C21C2146002001F0E2FE204612F0EB
:102F3000ADFEBDE8F0874FF47A717648A0F86E10C8
:102F40006421A0F872104FF47A71A0F87610002175
:102F5000A0F878104FF47A71A0F87A100021A0F848
:102F60007C104FF47A71A0F87E100021A0F8801038
:102F700041F2883181824FF4FA6066494882704795
:102F80000020644981F80001002162484184A0F8D2
:102F90008210C18400205F49088000215D48C18300
:102FA00001854185002004E000225B4921F81020C2
:102FB000401C0A28F8DD70472DED028B0024FFF736
:102FC000BAFF94E20121554804F00BFF18B101212A
:102FD0005048C18602E000214E48C18602214F4878
:102FE00004F0FFFE18B101214A48018702E00021E8
:102FF000484801874A48008810B900214548818423
:103000004448B0F92C00C82804DD01204149A1F84A
:10301000020103E000203F49A1F802013D48B0F958
:103020001A0000282BDD3B48B0F92E003D494843EB
:103030003849498B4FF47A7211FB02F190FBF1F0A1
:10304000692804DD01213348A0F8041117E0314854
:10305000B0F92E00334948432E49498B4FF47A7218
:1030600011FB02F190FBF1F05F2804DA02212948FC
:10307000A0F8041103E000212648A0F80411254817
:10308000B0F9180000282BDD2248408E642110FB87
:1030900001F12048B0F9180091FBF0F0692806DD35
:1030A00001211C48A0F80811A0F80A1118E01948DD
:1030B000408E642110FB01F11648B0F9180091FB15
:1030C000F0F05F2806DA02211248A0F80811A0F8F3
:1030D0000A1105E000210F48A0F80811A0F80A1114
:1030E0000C48B0F93A0041F29411884204DD012104
:1030F0000848A0F810111BE00648B0F93A00B0F5F6
:10310000FA7F11DA02210348A0F8101110E0000044
:1031100000000000FC720020FE7300200008024046
:1031200068090020A08601000021FA48A0F81011CB
:10313000F848B0F93C0041F28831884204DD0121B1
:10314000F448A0F8121103E00021F248A0F812118F
:10315000F048B0F93E0042F6F821884204DD012132
:10316000EC48A0F814110FE0EA48B0F93E0042F232
:103170002831884204DA0221E648A0F8141103E05D
:103180000021E448A0F814110021E248A0F816112B
:1031900000241CE0DF48008802280CD1DD48B0F88C
:1031A000161100F5817030F81400084401B2D948B6
:1031B000A0F8161103E00021D74820F814100A23C4
:1031C00000221146104609F0E5FB601CC4B20A2C2F
:1031D000E0DBD048B0F91601002803DD0121CD481D
:1031E000A0F81611002410E0CA4A2C3232F814203C
:1031F00091B244F06000FFF74CFE0A230022114612
:10320000104609F0C7FB601CC4B2092CECDD002499
:103210000FE0C04A32F8142091B244F01000FFF7DA
:1032200038FE0A2300221146104609F0B3FB601C49
:10323000C4B2082CEDDD002410E0B64A403232F86A
:10324000142091B244F09000FFF723FE0A230022DD
:103250001146104609F09EFB601CC4B20F2CECDD39
:10326000002410E0AB4A123232F8142091B244F03C
:103270003000FFF70EFE0A2300221146104609F027
:1032800089FB601CC4B20C2CECDD002410E0A14AC8
:10329000683232F8142091B244F0D000FFF7F9FD03
:1032A0000A2300221146104609F074FB601CC4B2C8
:1032B0000D2CECDD00240FE0974A32F8142091B277
:1032C00044F07000FFF7E5FD0A2300221146104686
:1032D00009F060FB601CC4B20A2CEDDD002410E094
:1032E0008D4A1E3A32F8142091B244F0B000FFF734
:1032F000D0FD0A2300221146104609F04BFB601C4A
:10330000C4B2052CECDD8348C08D20B38148808B8E
:103310008049898D10FB01F04FF47A7148437D4953
:10332000B1F92E1090FBF1F000EE100AB8EEC08A51
:103330007A48B0F9000000EE100AB8EEC00AFFF7B4
:1033400034FDC8EE000ABDEEE00A10EE100A01B22C
:103350007048418602E000216E4841866D48408FEA
:1033600038B36C48418EC08F11FB00F000EE100A9C
:10337000B8EEC00ADFED6A0A60EE200A6548B0F9CF
:103380003A0000EE100AB8EEC01A9FED660AF7EE9A
:10339000001A01EE210A9FED641A20EE010A80EE68
:1033A000801ABDEEC10A10EE100A01B2594881869A
:1033B00002E00021574881865648C08B5549488015
:1033C0000846C08B88850846808D88800846408BDB
:1033D000C8800846C08D08810846008B4881084691
:1033E000408E88810846008CC8810846808E0882FD
:1033F0004E48D0ED040A0846B0F9720000EE100AFB
:10340000B8EEC00A20EE800ABDEEC00A10EE100A27
:1034100001B24048C185C08F68B33E48B0F92E0064
:1034200000EE100AB8EEC00ADFED3F0A60EE200A97
:103430003848B0F93A0000EE100AB8EEC01A9FED15
:10344000390AF7EE001A01EE210A60EE800A3148CF
:10345000B0F93E0000EE100AB8EEC00A9FED301A37
:1034600020EE010A80EE801ABDEEC10A10EE100AAD
:1034700001B2284801862748408F30B32548018B88
:10348000C08F11FB00F000EE100AB8EEC00ADFEDAD
:10349000240A60EE200A1F48B0F93A0000EE100A34
:1034A000B8EEC01A9FED1F0AF7EE001A01EE210ACE
:1034B0009FED1D1A20EE010A80EE801ABDEEC10AB2
:1034C00010EE100A01B2134801841948D0F8100315
:1034D00001B21048A0F8EC1006221649002001F0B5
:1034E00007FCC82300221146104609F053FA69E58B
:1034F0000EB502F045FB10A207CA8DE807000121B6
:10350000104804F07DFC002302221946184609F0F9
:1035100041FAFDE3FC720020FE73002066070020E4
:10352000339388430066D54666A6CA4268310020B8
:10353000F0C10020580700204136343030300D0AE9
:103540000D00000000080240FE4890F8220000F044
:10355000080000287ED0FB48808B78B1F948418B69
:10356000008B11FB00F1F748808B4FF47A7210FB4F
:1035700002F091FBF0F000B2F3490880F248B0F994
:10358000000000EE100AB8EEC00AFFF70EFCEE488D
:10359000B0F9000000EE900AF8EEE00A20EE200AF2
:1035A000BDEEC00A10EE100A01B2E648C183022146
:1035B000E64804F023FC002302221946184609F0CD
:1035C000E9F9E048B0F91A0000EE100AB8EEC00AB6
:1035D000DFEDDF0A20EE200ADFEDDE0A20EE200A12
:1035E000B1EE041AC0EE010AD648B0F9720000EE3E
:1035F000100AB8EEC00A80EE801ABDEEC10A10EEC5
:10360000104A42F2107094FBF0F03030C0B28DF8E6
:1036100001004FF47A7094FBF0F00A2190FBF1F274
:1036200001FB12003030C0B28DF80200642094FB20
:10363000F0F090FBF1F201FB12003030C0B28DF8D7
:1036400003000A2094FBF0F090FBF1F201FB120062
:10365000303000E02FE0C0B28DF804000A2094FB67
:10366000F0F100FB11403030C0B28DF805000922A6
:103670006946052001F03CFB4FF48071B64804F028
:10368000BDFBB048B0F9220040F00201AD484184D2
:10369000B0F9220020F00801AA4841840220A9497B
:1036A0000880C82300221146104609F073F9012052
:1036B000AA49088035E0A34890F8220000F01000E5
:1036C00078B3A048B0F9220020F010019D48418451
:1036D0000021C18302219D4804F092FB30208DF827
:1036E00001008DF802008DF803008DF804008DF8BC
:1036F000050009226946052001F0FAFA9148B0F95F
:10370000220040F004018F48418400208D49088048
:10371000C82300221146104609F03CF901208F49C8
:1037200008808F4890ED050AB5EEC00AF1EE10FA58
:1037300005D14FF48071884804F062FB04E04FF437
:103740008071854804F05AFB7E4890F85C0000F0D8
:10375000010000287DD07B48B0F95C0020F0010119
:103760007848A0F85C10B0F8540090B17548B0F8F3
:103770005610B0F84A0011FB00F17248B0F854003E
:103780004FF47A7210FB02F091FBF0F000B26E4938
:1037900008806D48B0F9000000EE100AB8EEC00ACB
:1037A000FFF703FB6848B0F9000000EE900AF8EE5E
:1037B000E00A20EE200ABDEEC00A10EE100A01B2A7
:1037C0006048C183B0F856104183B0F8541081832B
:1037D000B0F84A10018302215C4804F00FFB00237B
:1037E00002221946184609F0D5F85648B0F9560095
:1037F00000EE100AB8EEC00ADFED550A20EE200AEE
:10380000DFED540A20EE200AB1EE041AC0EE010AE0
:103810004C48B0F9720000EE100AB8EEC00A80EE13
:10382000801ABDEEC10A10EE104A42F2107094FBED
:10383000F0F03030C0B28DF801004FF47A7094FB94
:10384000F0F00A2190FBF1F201FB12003030C0B21F
:1038500000E044E08DF80200642094FBF0F090FB5F
:10386000F1F201FB12003030C0B28DF803000A20E3
:1038700094FBF0F090FBF1F201FB12003030C0B28B
:103880008DF804000A2094FBF0F100FB1140303069
:10389000C0B28DF8050009226946052001F028FA1A
:1038A0004FF480712C4804F0A9FA2648B0F92200A0
:1038B00040F0020123484184B0F9220020F00801C1
:1038C0002048418402201F490880C8230022114655
:1038D000104609F05FF801202049088028E01948C7
:1038E00090F85E0000F0010010B31648B0F95E00D9
:1038F00020F001011348A0F85E10B0F91E0000EEA0
:10390000100AB8EEC00A0F4880ED220AB0F9400054
:1039100000EE100AF8EEC00A0A48B0F9320000EED4
:10392000100AB8EEC00A80EE801A064880ED271A09
:10393000044890F85C0000F0020000287ED00148A6
:1039400010E00000FC720020660700200008024022
:10395000CDCCCC4000007A44001002406809002021
:1039600068310020B0F95C0020F00201FE48A0F8A8
:103970005C10B0F8540090B1FB48B0F85610B0F8A5
:103980004C0011FB00F1F848B0F854004FF47A7283
:1039900010FB02F091FBF0F000B2F4490880F3480C
:1039A000B0F9000000EE100AB8EEC00AFFF7FDF90A
:1039B000EE48B0F9000000EE900AF8EEE00A20EEC2
:1039C000200ABDEEC00A10EE100A01B2E648C1831B
:1039D000B0F856104183B0F854108183B0F84C1001
:1039E00001830221E24804F009FA00230222194669
:1039F000184608F0CFFFDC48B0F9560000EE100A78
:103A0000B8EEC00A5FED2E0A20EE200A5FED2F0A05
:103A100020EE200AB1EE041AC0EE010AD248B0F935
:103A2000720000EE100AB8EEC00A80EE801ABDEEF9
:103A3000C10A10EE104A42F2107000E055E094FB0B
:103A4000F0F03030C0B28DF801004FF47A7094FB82
:103A5000F0F00A2190FBF1F201FB12003030C0B20D
:103A60008DF80200642094FBF0F090FBF1F201FB72
:103A700012003030C0B28DF803000A2094FBF0F041
:103A800090FBF1F201FB12003030C0B28DF804005F
:103A90000A2094FBF0F100FB11403030C0B28DF8E9
:103AA000050009226946052001F022F94FF48071D2
:103AB000B04804F0A3F9AC48B0F9220040F002018C
:103AC000A9484184B0F9220020F00801A6484184A9
:103AD0000220A5490880C82300221146104608F09C
:103AE00059FF0120A449088028E09F4890F85E0013
:103AF00000F0020010B39C48B0F95E0020F0020113
:103B00009948A0F85E10B0F91E0000EE100AB8EE59
:103B1000C00A954880ED230AB0F9420000EE100A71
:103B2000F8EEC00A9048B0F9320000EE100AB8EE84
:103B3000C00A80EE801A8C4880ED281A8A4890F8D6
:103B40005C0000F0040000287DD08748B0F95C00DC
:103B500020F004018448A0F85C10B0F8540090B143
:103B60008148B0F85610B0F84E0011FB00F17E48C5
:103B7000B0F854004FF47A7210FB02F091FBF0F0B1
:103B800000B27A4908807948B0F9000000EE100AC6
:103B9000B8EEC00AFFF709F97448B0F9000000EE6A
:103BA000900AF8EEE00A20EE200ABDEEC00A10EE00
:103BB000100A01B26C48C183B0F856104183B0F8C6
:103BC00054108183B0F84E1001830221684804F03C
:103BD00015F9002302221946184608F0DBFE624858
:103BE000B0F9560000EE100AB8EEC00A5FEDA80A60
:103BF00020EE200A5FEDA90A20EE200AB1EE041A99
:103C0000C0EE010A5848B0F9720000EE100AB8EE92
:103C1000C00A80EE801ABDEEC10A10EE104A42F2D0
:103C2000107094FBF0F03030C0B28DF801004FF40A
:103C30007A7094FBF0F00A2190FBF1F201FB120084
:103C40003030C0B200E044E08DF80200642094FB04
:103C5000F0F090FBF1F201FB12003030C0B28DF8B1
:103C600003000A2094FBF0F090FBF1F201FB12003C
:103C70003030C0B28DF804000A2094FBF0F100FB54
:103C800011403030C0B28DF8050009226946052088
:103C900001F02EF84FF48071364804F0AFF8324846
:103CA000B0F9220040F002012F484184B0F922000F
:103CB00020F008012C48418402202B490880C823A9
:103CC00000221146104608F065FE01202A490880AE
:103CD0002AE0254890F85E0000F0040020B3224856
:103CE000B0F95E0020F004011F48A0F85E10B0F9A2
:103CF0001E0000EE100AB8EEC00A1B4880ED240A30
:103D0000B0F9440000EE100AF8EEC00A164800E0D0
:103D100045E3B0F9320000EE100AB8EEC00A80EEBA
:103D2000801A114880ED291A0F4890F85C0000F0C5
:103D3000080000287ED00C48B0F95C0020F0080193
:103D40000948A0F85C10B0F85400F0B10648B0F88B
:103D50005610B0F8500011FB00F10348B0F85400C1
:103D60004FF47A720AE00000FC720020660700201F
:103D700000080240001002406809002010FB02F019
:103D800091FBF0F000B2FD490880FC48B0F900005A
:103D900000EE100AB8EEC00AFFF707F8F748B0F9CE
:103DA000000000EE900AF8EEE00A20EE200ABDEED8
:103DB000C00A10EE100A01B2F148C183B0F85610E3
:103DC0004183B0F854108183B0F850100183022170
:103DD000EC4804F013F8002302221946184608F0B4
:103DE000D9FDE748B0F9560000EE100AB8EEC00A57
:103DF000DFEDE50A20EE200ADFEDE40A20EE200ADE
:103E0000B1EE041AC0EE010ADD48B0F9720000EE0E
:103E1000100AB8EEC00A80EE801ABDEEC10A10EE9C
:103E2000104A42F2107094FBF0F03030C0B28DF8BE
:103E3000010000E04FE04FF47A7094FBF0F00A21AB
:103E400090FBF1F201FB12003030C0B28DF802009D
:103E5000642094FBF0F090FBF1F201FB1200303093
:103E6000C0B28DF803000A2094FBF0F090FBF1F251
:103E700001FB12003030C0B28DF804000A2094FB20
:103E8000F0F100FB11403030C0B28DF8050009227E
:103E90006946052000F02CFF4FF48071BC4803F008
:103EA000ADFFB748B0F9220040F00201B4484184A8
:103EB000B0F9220020F00801B14841840220B04945
:103EC0000880C82300221146104608F063FD012037
:103ED000B049088028E0AA4890F85E0000F0080089
:103EE00010B3A748B0F95E0020F00801A448A0F87C
:103EF0005E10B0F91E0000EE100AB8EEC00AA0482D
:103F000080ED250AB0F9460000EE100AF8EEC00A6E
:103F10009B48B0F9320000EE100AB8EEC00A80EEFD
:103F2000801A974880ED2A1A954890F85C0000F0B6
:103F3000100000287DD09248B0F95C0020F01001FC
:103F40008F48A0F85C10B0F8540090B18C48B0F8DD
:103F50005610B0F8520011FB00F18948B0F8540037
:103F60004FF47A7210FB02F091FBF0F000B283493B
:103F700008808248B0F9000000EE100AB8EEC00ACE
:103F8000FEF713FF7D48B0F9000000EE900AF8EE4E
:103F9000E00A20EE200ABDEEC00A10EE100A01B2BF
:103FA0007748C183B0F856104183B0F8541081832C
:103FB000B0F8521001830221724803F01FFF002362
:103FC00002221946184608F0E5FC6D48B0F9560083
:103FD00000EE100AB8EEC00ADFED6B0A20EE200AF0
:103FE000DFED6A0A20EE200AB1EE041AC0EE010AE3
:103FF0006348B0F9720000EE100AB8EEC00A80EE15
:10400000801ABDEEC10A10EE104A42F2107094FB05
:10401000F0F03030C0B28DF801004FF47A7094FBAC
:10402000F0F00A2190FBF1F201FB12003030C0B237
:1040300000E044E08DF80200642094FBF0F090FB77
:10404000F1F201FB12003030C0B28DF803000A20FB
:1040500094FBF0F090FBF1F201FB12003030C0B2A3
:104060008DF804000A2094FBF0F100FB1140303081
:10407000C0B28DF8050009226946052000F038FE1F
:104080004FF48071424803F0B9FE3D48B0F9220078
:1040900040F002013A484184B0F9220020F00801C2
:1040A00037484184022036490880C823002211463F
:1040B000104608F06FFC01203649088028E030489F
:1040C00090F85E0000F0100010B32D48B0F95E00CB
:1040D00020F010012A48A0F85E10B0F91E0000EE92
:1040E000100AB8EEC00A264880ED260AB0F948004A
:1040F00000EE100AF8EEC00A2148B0F9320000EED6
:10410000100AB8EEC00A80EE801A1D4880ED2B1A06
:104110001B4890F85C0000F02000E8B31848B0F9A4
:104120005C0020F020011648A0F85C100020144923
:1041300081F8B00000BF3EE0411D114A403232F824
:10414000111051B3114631F8101031B302F148018A
:1041500001EB800191ED000A094991F8B020883106
:1041600001EB820181ED000A05499C3101EB8001E0
:1041700091ED000A024991F8B0200FE06607002097
:10418000FC72002000080240CDCCCC4000007A44F4
:1041900000100240680900201EE00BE09C3101EB9A
:1041A000820181ED000A7F4991F8B010491C7D4AD7
:1041B00082F8B010401C0528BEDB7A4890F8B02089
:1041C00000F19C018830FEF7ABFD7648B0F9220083
:1041D00040F0100173484184724890F8820000F06A
:1041E0000400E8B36F48B0F9820020F004016D4884
:1041F000A0F88210B0F870004FF4C85110FB01F025
:10420000052190FBF1F16748B0F9720091FBF0F4E1
:1042100042F2107094FBF0F03030C0B28DF8010023
:104220004FF47A7094FBF0F00A2190FBF1F201FB5D
:1042300012003030C0B28DF80200642094FBF0F020
:1042400090FBF1F201FB12003030C0B28DF8030098
:104250000A2094FBF0F090FBF1F201FB120000E069
:1042600012E03030C0B28DF804000A2094FBF0F167
:1042700000FB11403030C0B28DF8050009226946BC
:10428000052000F035FD29E0464890F8820000F056
:10429000080018B34348B0F9820020F008014148F3
:1042A000A0F88210B0F9740000EE100AB8EEC00A4F
:1042B0003D48D0ED040A80EE201ABDEEC10A10EE92
:1042C000100A01B23748A0F87210B0F97200002845
:1042D00004DA4FF47A713348A0F87210314890F83C
:1042E000820000F00100A8B12E48B0F9820020F051
:1042F00001012C48A0F8821001202A4908800846B4
:10430000B0F9220040F002012648418401202749EB
:1043100008803EE02348008801281DD12148408CB8
:10432000D0B922480088A0BB1E48B0F9220040F452
:1043300000711C48418401211D4803F061FDC82320
:1043400000221146104608F025FB0120174908807D
:104350000020144908801CE0124890F8820000F008
:104360000200B0B10F48B0F9820020F002010D4800
:10437000A0F88210B0F86A004FF47A7110FB01F1D6
:104380000848B0F96C0091FBF0F001B20548A0F8C4
:104390006E100A2300221146104608F0FBFAFFF7C0
:1043A000D3B80000FC7200206831002068090020AA
:1043B0000008024010B51921BB48FCF754FE1B222F
:1043C000B949032000F094FC6423002211461046F2
:1043D00008F0E0FA1B22B449032000F089FC4FF4F6
:1043E000FA7300221146104608F0D4FA0822AF49A9
:1043F000032000F07DFCC82300221146104608F07F
:10440000C9FA0822A949032000F072FCC82300223F
:104410001146104608F0BEFA10BD1CB5A4A103C990
:10442000CDE9000100253EE128466D1C00F00100A9
:1044300020B108226946032000F05AFCC82300225C
:104440001146104608F0A6FA9B48408D022817D165
:104450009A480088A0B90121994803F0D1FCC823EB
:1044600000221146104608F095FA01219248418534
:1044700008229449032000F03BFC01208F4908806A
:104480008D48008D022817D18C480088A0B90121E1
:104490008B4803F0B5FCC82300221146104608F0F3
:1044A00079FA01218448018508228649032000F019
:1044B0001FFC0120814908807F4890F8260000F009
:1044C0000100F0B102217C48418501217C4803F0C4
:1044D00095FC0220744908721F204872402088729F
:1044E0001320C87388200874FFF764FF7248B0F97E
:1044F000260020F001017048C18401206F49088026
:10450000D1E06D4890F8220000F0010058B302217C
:104510006948018501216A4803F070FC6648418AB8
:10452000B0F86E0011FB00F04FF47A7190FBF1F0DF
:1045300084B202205C4908725F48808A000A48728F
:104540005D48007D88722012C8730C74FFF732FF3B
:104550005948B0F9220020F0010157484184012058
:10456000564908809FE0544890F8220000F08000EF
:1045700008B308225449032000F0BAFB4FF4FA7341
:1045800000221146104608F005FA08224F49032080
:1045900000F0AEFB4FF4FA7300221146104608F00B
:1045A000F9F9012144480185B0F9220020F0800189
:1045B0004148418477E04048408C00F4007038B3B3
:1045C00001213F4803F01CFC0220374908723A4899
:1045D000B0F86A00000A4872374890F86A0088729A
:1045E0003548B0F86800000AC873334890F868008E
:1045F0000874FFF7DFFE3048B0F9220020F40071A4
:104600002D4841841F2028494872402088724AE082
:10461000294890F8220000F00200F0B1012128485A
:1046200003F0EEFB2448C18BB0F86E0011FB00F0E4
:104630004FF47A7190FBF1F084B201201A490872AC
:104640002012C8730C74FFF7B5FE1B48B0F92200A6
:1046500020F002011848418425E0174890F8220014
:1046600000F00400C8B10121154803F0C9FB08227D
:104670001449032000F03CFBC823002211461046D9
:1046800008F088F90C48B0F9220020F004010A482B
:10469000418400214185018505E0C823002211469F
:1046A000104608F077F9BFE68C0900206C0900205D
:1046B00001039C7200010A41FC720020680900207D
:1046C00000080240740900207C09002084090020B1
:1046D0001CB505A103C9CDE90001082269460220E5
:1046E00000F006FB1CBD0000FF03000000031015D6
:1046F000704700BFFEE700BFFEE700BFFEE700BF58
:10470000FEE770477047704710B508F085FA044619
:104710000B480078401C0A490870204608F080FACF
:1047200006F089F906F08DF80648006808B90120FE
:1047300000E000200349086010BD7047704700008A
:10474000250A00208402424208B500214FF0006093
:1047500003F0A6F94FF4E06003F068F93D208DF80E
:10476000000000208DF801008DF8020001208DF876
:104770000300684603F05FF908BD00007FB505F04F
:1047800025FC022003F044FF684603F070FF4FF45D
:104790007A720098B0FBF2F1B1F1807F00D31DE096
:1047A00021F07F40401E4FF0E022506150170F2251
:1047B000002807DA13071D0E0B4B00F00F04241F0F
:1047C0001D5503E013071C0E084B1C5400BF0020AE
:1047D0004FF0E02290610720106100BFFFF7B4FFA7
:1047E00001F0E6F97FBD000018ED00E000E400E014
:1047F00008B54FF4E06003F019F925208DF80000AA
:1048000000208DF8020001208DF80300684603F0B7
:1048100012F926208DF8000001208DF802008DF895
:104820000300684603F007F927208DF800000220F6
:104830008DF8020001208DF80300684603F0FBF8B4
:1048400034208DF8000003208DF8020001208DF83F
:104850000300684603F0EFF847208DF800000520BC
:104860008DF8020001208DF80300684603F0E3F89C
:1048700008BD00B589B00121084603F08DFF012174
:10488000102003F0CDFF01A805F0E2F94FF4C0605D
:10489000079002208DF820008DF8210000208DF86F
:1048A000220001208DF8230007A9F84803F02AFA16
:1048B00007220921F54803F0B0FA07220A21F3483C
:1048C00003F0ABFA01A9F24805F0B2F94FF4E13078
:1048D00003900020ADF81000ADF81200ADF8140000
:1048E000ADF818000C20ADF8160003A9E84805F053
:1048F0002DF9012240F22551E54805F065FA40F214
:104900002661E34805F0D2FA0121E14805F0A6F955
:104910004021DF4805F08AFA0121084603F03CFFF8
:104920000121480403F06BFF0C20079002208DF852
:1049300020008DF8210000208DF8220001208DF844
:10494000230007A9D14803F0DDF907220221CF484F
:1049500003F063FA07220321CC4803F05EFA01A9B1
:10496000CC4805F065F94FF4E13003900020ADF834
:104970001000ADF81200ADF81400ADF818000C20CE
:10498000ADF8160003A9C34805F0E0F8012240F293
:104990002551C04805F018FA0121BE4805F05EF91E
:1049A0004021BC4805F042FA0121880403F027FFAA
:1049B0000121022003F0F0FE4FF440600790022036
:1049C0008DF820008DF8210000208DF822000120B4
:1049D0008DF8230007A9B04803F094F907220A21B3
:1049E000AD4803F01AFA07220B21AB4803F015FA81
:1049F0004FF4165003900020ADF81000ADF81200EF
:104A0000ADF81400ADF818000C20ADF8160003A99D
:104A1000A24805F09BF8012240F225519F4805F07D
:104A2000D3F901219D4805F019F940219B4805F073
:104A3000FDF90121084603F0AFFE0121C80403F08F
:104A4000DEFE0320079002208DF820008DF8210063
:104A500000208DF8220001208DF8230007A98B4843
:104A600003F050F908220021884803F0D6F9082203
:104A70000121864803F0D1F94FF41650039000202D
:104A8000ADF81000ADF81200ADF81400ADF8180044
:104A90000C20ADF8160003A9814805F057F8012253
:104AA00040F225517E4805F08FF901217C4805F040
:104AB000D5F840217A4805F0B9F90121042003F026
:104AC0006BFE0121202003F0ABFEC02007900220E6
:104AD0008DF820008DF8210000208DF822000120A3
:104AE0008DF8230007A96F4803F00CF9082206216E
:104AF0006C4803F092F9082207216A4803F08DF907
:104B00004FF4964003900020ADF81000ADF812006D
:104B1000ADF81400ADF818000C20ADF8160003A98C
:104B2000614805F013F8012240F225515E4805F076
:104B30004BF901215C4805F091F840215A4805F0F5
:104B400075F909B000BD5248584908605848886056
:104B50005848C8604FF4007008824882002088825C
:104B6000C88208834883C86108624862494852493C
:104B70000860524888605248C8604FF4007008824C
:104B8000488200208882C88208834883C8610862FE
:104B9000486242484B4908604B4888604B48C860AF
:104BA0004FF400700882488200208882C8820883FF
:104BB00048834748C861474808620020486238482F
:104BC00045490860454888604548C8604FF4007012
:104BD0000882488200208882C88208834883C8618E
:104BE0000862486230483F4908603F4888603F4853
:104BF000C8604FF400700882488200208882C88212
:104C000008834883C86108624862704710B5FFF79F
:104C10009AFFFFF72EFEFFF7EBFD10BD2DE9F041E7
:104C200004460E4617464FF00008012000F09CF99C
:104C3000A08AE18A884201D14FF00108002000F0EB
:104C400093F9002514E0705DA28AA16888540120C0
:104C500000F08AF9A08A401C80B2A082218A884292
:104C600001DB0020A082002000F07EF9681C85B2E4
:104C7000BD42E8DBB8F1010F05D1012240F22771F6
:104C8000206805F0A1F8BDE8F081000000000240B6
:104C90000010014000440040000402400048004071
:104CA000004C004000080240001401404074002005
:104CB0006874002068760020347900205C79002038
:104CC0005C7B0020C47D0020EC7D0020EC7F002078
:104CD000135000081F500008F88100202082002097
:104CE00020840020548600207C8600207C880020C0
:104CF0002DE9F04105460E4617460DB99C4C14E0CF
:104D0000012D01D19B4C10E0022D01D19A4C0CE0F9
:104D1000032D01D1994C08E0042D01D1BDE8F081AB
:104D2000052D01D1964C00E0F8E7E06908B1E06993
:104D300080473A4631462046FFF770FF00BFEDE757
:104D400013B50446012201A92046FFF7D1FF1CBD7F
:104D500070B504460D46012000F006F9268B0020B0
:104D600000F002F9608BB04201D1002070BD618B70
:104D7000E068405C2870012000F0F6F8608B401C71
:104D800080B26083618A884201DB0020608300205A
:104D900000F0EAF80120E9E770B504460E460CB9C8
:104DA000734D15E0012C01D1724D11E0022C01D19F
:104DB000714D0DE0032C01D1704D09E0042C01D19F
:104DC000002070BD052C01D16D4D01E00020F8E7F9
:104DD00031462846FFF7BCFFF3E770B5044640F2C2
:104DE0002551206805F02BF8D0B1206804F065FF4C
:104DF000C5B2218BE0684554208B401C80B22083D3
:104E0000618A884201DB00202083606A08B1606A01
:104E100080475C48006840F001005A49086005E09E
:104E20005848006840F010005649086040F2277169
:104E3000206805F004F830B3E08AA18A88420CD1DA
:104E4000002240F22771206804F0BEFF012240F2E8
:104E50002661206804F0B8FF0EE0E38AA268D15C06
:104E6000206804F026FFE08A401C80B2E082218A9C
:104E7000884201DB0020E0824248006840F48070F4
:104E80004049086030E040F22661206804F0D7FF16
:104E900020B3E08AA18A88420AD1002240F226612A
:104EA000206804F091FF206A88B1206A80470EE0F4
:104EB000E38AA268D15C206804F0FBFEE08A401C13
:104EC00080B2E082218A884201DB0020E0822D4806
:104ED000006840F480502B49086005E029480068CC
:104EE00040F480302749086070BD10B50120264984
:104EF00008601F48FFF771FF10BD10B5022022495E
:104F000008601C48FFF769FF10BD10B503201E495B
:104F100008601948FFF761FF10BD10B504201A4959
:104F200008601648FFF759FF10BD10B50620164956
:104F300008601348FFF751FF10BD7047704770B508
:104F400004460D46E1B20420FFF7FAFE204670BD8C
:104F500038B5044600BF69460320FFF71DFF00284F
:104F6000F9D09DF8000038BD80F31088704700002C
:104F70004074002034790020C47D0020F881002096
:104F800054860020AC090020A80900201CB501218E
:104F9000102003F001FC4FF4E060009001208DF838
:104FA000040002208DF8050000208DF80600012085
:104FB0008DF807006946094802F0A4FE4FF480719D
:104FC000064802F01BFF4FF40071044802F016FF80
:104FD0004FF48061014802F011FF1CBD0010024037
:104FE0001CB50121022003F0D7FB4FF48050009044
:104FF00001208DF8040002208DF8050000208DF8B6
:10500000060001208DF807006946084802F07AFE84
:105010001CBD4FF4805005491831088070474FF48B
:10502000805002491A310880704700000004024095
:1050300008B54FF4E06002F0F9FC24208DF8000080
:1050400000208DF801008DF8020001208DF803008A
:10505000684602F0F0FC08BD1CB50121C80303F04E
:10506000CEFB0121022003F097FB182000900120C5
:105070008DF8040002208DF8050000208DF8060050
:1050800001208DF807006946F94802F03BFE202018
:10509000009002208DF8050001208DF8040000200A
:1050A0008DF8060001208DF807006946F04802F0EF
:1050B00029FE1CBD00B587B00121880303F09FFBCA
:1050C0000121022003F068FB0121102003F064FBA2
:1050D0000121042003F060FB4FF4604000900220A7
:1050E0008DF804008DF8050000208DF806000120E1
:1050F0008DF807006946DE4802F004FE4FF4A04038
:10510000009000208DF8040002208DF80500012099
:105110008DF806008DF807006946D64802F0F2FDCA
:105120004FF4A070009000208DF8040002208DF84C
:10513000050001208DF806008DF807006946CE486D
:1051400002F0E0FD05220D21C94802F066FE0522AD
:105150000E21C74802F061FE05220F21C44802F06B
:105160005CFE4FF42040009002208DF805000120E5
:105170008DF8040000208DF8060001208DF807004E
:105180006946BC4802F0BEFD4FF42070009002203A
:105190008DF8050001208DF8040000208DF8060030
:1051A00001208DF807006946B34802F0ABFD0021ED
:1051B000B24803F038FD4FF40051AE4802F01EFE35
:1051C0004FF40041AB4802F019FE8021AA4802F0DA
:1051D00015FE0020ADF808004FF48270ADF80A000B
:1051E0000020ADF80C000220ADF80E000120ADF853
:1051F00010002820ADF814004FF40070ADF8120034
:105200000020ADF816000720ADF8180002A99B4851
:1052100003F026FC0121994803F005FD07B000BD0D
:105220000021974A116004E095490968491C944A95
:105230001160934909688142F6DB704770B50446F6
:105240000D464FF400518B4802F0DAFD00BF0221F9
:105250008A4803F0A0FD0028F9D02146874803F0D2
:1052600063FD00BF0121854803F095FD0028F9D0BA
:10527000824803F056FD00BF0221804803F08BFDF9
:105280000028F9D029467D4803F04EFD00BF0121DA
:105290007A4803F080FD0028F9D0784803F041FDFA
:1052A0004FF40051734802F0A9FD70BD70B504467B
:1052B0004FF400516F4802F0A3FD00BF02216F4878
:1052C00003F069FD0028F9D021466C4803F02CFD5D
:1052D00000BF0121694803F05EFD0028F9D067484E
:1052E00003F01FFD054600BF0221644803F053FD93
:1052F0000028F9D00021614803F016FD00BF01210C
:105300005E4803F048FD0028F9D05C4803F009FD31
:1053100005464FF40051574802F070FD284670BD15
:1053200070B504460D464FF40041524802F068FD46
:1053300000BF0221514803F02EFD0028F9D021467C
:105340004E4803F0F1FC00BF01214C4803F023FD5F
:105350000028F9D0494803F0E4FC00BF0221474887
:1053600003F019FD0028F9D02946444803F0DCFC7D
:1053700000BF0121414803F00EFD0028F9D03F484D
:1053800003F0CFFC4FF400413A4802F037FD70BD06
:1053900070B504464FF40041364802F031FD00BFBD
:1053A0000221364803F0F7FC0028F9D021463348A3
:1053B00003F0BAFC00BF0121304803F0ECFC0028E8
:1053C000F9D02E4803F0ADFC054600BF02212B4862
:1053D00003F0E1FC0028F9D00021284803F0A4FCE8
:1053E00000BF0121254803F0D6FC0028F9D023484E
:1053F00003F097FC05464FF400411E4802F0FEFC06
:10540000284670BD70B504460D4680211A4802F04A
:10541000F7FC00BF0221194803F0BDFC0028F9D0B9
:105420002146164803F080FC00BF0121134803F019
:10543000B2FC0028F9D0114803F073FC00BF022130
:105440000E4803F0A8FC0028F9D029460B4803F0C9
:105450006BFC00BF0121094803F09DFC0028F9D036
:10546000064803F05EFC8021034802F0C7FC70BDD3
:1054700000040240001002400008024000380040D2
:10548000B009002070B504468021A94802F0B8FC9C
:1054900000BF0221A74803F07EFC0028F9D0214676
:1054A000A44803F041FC00BF0121A24803F073FCB3
:1054B0000028F9D09F4803F034FC054600BF0221C4
:1054C0009C4803F068FC0028F9D00021994803F0BB
:1054D0002BFC00BF0121974803F05DFC0028F9D0A8
:1054E000944803F01EFC05468021914802F086FC9A
:1054F000284670BD70B504460D464FF400718C48C7
:1055000002F07EFC00BF02218A4803F044FC002820
:10551000F9D02146874803F007FC00BF01218548E8
:1055200003F039FC0028F9D0824803F0FAFB00BFF1
:105530000221804803F02FFC0028F9D029467D483D
:1055400003F0F2FB00BF01217A4803F024FC00289D
:10555000F9D0784803F0E5FB4FF40071744802F08D
:105560004DFC70BD70B504464FF40071704802F0F8
:1055700047FC00BF02216F4803F00DFC0028F9D062
:1055800021466C4803F0D0FB00BF0121694803F0BD
:1055900002FC0028F9D0674803F0C3FB054600BFB2
:1055A0000221644803F0F7FB0028F9D0002161488C
:1055B00003F0BAFB00BF01215E4803F0ECFB0028BA
:1055C000F9D05C4803F0ADFB05464FF40071584834
:1055D00002F014FC284670BD70B504464FF400512B
:1055E000554802F00DFC00BF0221524803F0D3FBE6
:1055F0000028F9D04FF6FF7000EA144631464D48B6
:1056000003F092FB00BF01214A4803F0C4FB0028CD
:10561000F9D0484803F085FB05462D043220FFF7FA
:10562000FFFD00BF0221434803F0B5FB0028F9D07D
:10563000A6B231463F4803F077FB00BF01213D4849
:1056400003F0A9FB0028F9D03A4803F06AFB0543B0
:105650006420FFF7E5FD4FF40051374802F0CEFB20
:105660006420FFF7DDFD284670BD70B504464FF499
:105670000051314802F0C4FB6420FFF7D1FD00BFA8
:1056800002212C4803F087FB0028F9D02146294845
:1056900003F04AFB00BF0121264803F07CFB0028F1
:1056A000F9D0244803F03DFB05464FF40051224851
:1056B00002F0A4FB6420FFF7B3FD284670BD10B5CF
:1056C00000BF02211B4803F066FB0028F9D000212F
:1056D000184803F029FB00BF0121164803F05BFBCB
:1056E0000028F9D0134803F01CFB0446204610BDE7
:1056F00010B500244FF4007002F07CFAB0B1A400A1
:105700004FF480410D4802F05FFB00B1641C0C486F
:105710000068401C0A49086008460068202801D13A
:10572000002008604FF4007002F075FA10BD000010
:10573000000802400038004000100240000402400F
:10574000B40900201CB50121022003F025F84020F7
:10575000009002208DF804008DF8050000208DF8DF
:10576000060001208DF807006946F94802F0CAFAE0
:1057700002220621F64802F050FB80200090694684
:10578000F34802F0BFFA02220721F14802F045FB7C
:105790004FF4807000906946ED4802F0B3FA02229F
:1057A0000821EB4802F039FB4FF400700090694685
:1057B000E74802F0A7FA02220921E54802F02DFB92
:1057C0001CBD00B589B00121042003F018F84FF486
:1057D000FA60029040F24730ADF804000020ADF8C6
:1057E0000C00ADF806008DF80E0001A9D94803F0B1
:1057F000BAFB6020ADF810000120ADF812004FF4A4
:10580000FA7006900020ADF81C0004A9D14803F0FE
:1058100078FC0821CF4803F0D1FD04A9CD4803F05E
:10582000BDFC0821CB4803F0D6FD04A9C94803F00C
:105830001BFD0821C74803F0D7FD0121C54803F02F
:10584000FDFB0121C34803F017FC09B000BD00B502
:1058500089B00121880402F0E3FF4FF4FA6002905E
:1058600040F28F60ADF804000020ADF80C00ADF8F8
:1058700006008DF80E0001A9B74803F074FB602004
:10588000ADF810000120ADF8120064200690002051
:10589000ADF81C0004A9B04803F0FAFB0821AE489B
:1058A00003F083FD0121AC4803F0C8FB0121AA48A5
:1058B00003F0E2FB09B000BD00B589B00121480446
:1058C00002F0AEFF4FF4FA60029040F28F60ADF844
:1058D00004000020ADF80C00ADF806008DF80E00B5
:1058E00001A99E4803F03FFB6020ADF810000120A5
:1058F000ADF81200642006900020ADF81C0004A949
:10590000964803F0C5FB0821944803F04EFD0121A1
:10591000924803F093FB0121904803F0ADFB09B0DE
:1059200000BD70477FB50121084602F068FF8C4832
:10593000006846088B48B6FBF0F085B24FF6FF745E
:105940000294ADF804500020ADF80C00ADF806004C
:1059500001A94FF0804003F006FB0121880703F006
:105960008BFB1C208DF8000004208DF80100002026
:105970008DF8020001208DF80300684602F05BF804
:105980007FBD1FB50121022002F039FF4CF25030DB
:105990000290A720ADF804000020ADF80C00ADF88F
:1059A00006008DF80E0001A96F4803F0DCFA012112
:1059B0006D4803F08DFF012211466B4803F074FF20
:1059C0000021694803F058FB4FF4E06002F02EF824
:1059D0001D208DF8000000208DF801008DF80200D8
:1059E00001208DF80300684602F025F801215E4889
:1059F00003F042FB1FBD2DE9F04104460E4615465B
:105A0000052E00D3761F4FF0804003F0F9FA0746C9
:105A100007EB0608012C0FD1544805604146A0074A
:105A200003F08FFC0221480703F066FF01220221E8
:105A3000480703F039FF38E0022C0FD14C480560CD
:105A40004146600703F07FFC0421080703F054FF80
:105A500001220421080703F027FF26E0032C10D1C0
:105A60004448056041464FF0804003F06EFC082139
:105A7000C80603F041FF01220821C80603F014FF05
:105A800013E0042C0FD13C4805604146200703F089
:105A90005EFC1021880603F02FFF012210218806EA
:105AA00003F002FF01E0BDE8F08100BFFBE710B5A5
:105AB0000221480703F00FFF58B10221480703F005
:105AC0001BFF00220221480703F0EEFE2748006872
:105AD00080470421080703F0FEFE58B1042108079F
